:020000040800F2
:1000000080070020CD01000839150008E31400081E
:10001000351500087D020008CD170008000000001B
:10002000000000000000000000000000771500083C
:10003000810200080000000075150008CF150008B7
:10004000E7010008E7010008E7010008E7010008F0
:10005000E7010008E7010008E7010008E7010008E0
:10006000E7010008E7010008E7010008E7010008D0
:10007000E7010008E7010008E7010008E7010008C0
:10008000E7010008E7010008E7010008E7010008B0
:10009000E7010008E7010008E7010008E7010008A0
:1000A000E7010008E7010008E7010008E701000890
:1000B000E7010008E7010008E7010008E701000880
:1000C000E7010008E7010008E7010008E701000870
:1000D000E70100088D170008E7010008E7010008A4
:1000E000E7010008E7010008E7010008E701000850
:1000F000E7010008E7010008E7010008E701000840
:10010000E7010008E7010008E7010008E70100082F
:10011000E7010008E7010008E7010008E70100081F
:10012000E7010008E7010008E7010008E70100080F
:1001300000F002F800F03AF80AA090E8000C8244BF
:100140008344AAF10107DA4501D100F02FF8AFF29C
:10015000090EBAE80F0013F0010F18BFFB1A43F0A5
:10016000010318477417000094170000103A24BFC9
:1001700078C878C1FAD8520724BF30C830C144BF0C
:1001800004680C607047000000230024002500264E
:10019000103A28BF78C1FBD8520728BF30C148BFEA
:1001A0000B6070471FB51FBD10B510BD00F033F8D0
:1001B0001146FFF7F7FF01F047FB00F051F803B4D9
:1001C000FFF7F2FF03BC01F003FB00000948804782
:1001D00009480047FEE7FEE7FEE7FEE7FEE7FEE729
:1001E000FEE7FEE7FEE7FEE704480549054A064B41
:1001F00070470000D9150008310100088001002077
:100200008007002080030020800300207047704793
:10021000704770477047754600F02CF8AE460500F1
:100220006946534620F00700854618B020B5FFF711
:10023000DBFFBDE820404FF000064FF000074FF015
:1002400000084FF0000B21F00701AC46ACE8C009F4
:10025000ACE8C009ACE8C009ACE8C0098D467047FD
:1002600010B50446AFF300802046BDE81040FFF70C
:10027000A6BF0000004870471C01002000BFFEE739
:10028000704731B5002400F093F9044600BF00F038
:100290008FF9001B00998842F9D338BD2DE9F84742
:1002A000034600240020002584460027002266E142
:1002B0004FF0010808FA02F4D1F8008008EA0400BF
:1002C000A0427DD1DFF8C0A2D1F80480A8EB0A09D2
:1002D000D0453AD014DCB8F1030F50D009DCB8F1A6
:1002E000000F31D0B8F1010F1CD0B8F1020F49D185
:1002F00020E0B8F1110F18D0B8F1120F42D11EE072
:10030000B9F5881F25D006DCB9F5803F20D0B9F5B6
:10031000801F37D11AE0B9F5001F18D0B9F5041FB6
:1003200030D117E0D1F80CC02DE0D1F80C8008F1E5
:10033000040C28E0D1F80C8008F1080C23E0D1F877
:100340000C8008F10C0C1EE000BF00BF00BF00BF16
:1003500000BF00BFD1F80880B8F1000F02D14FF004
:10036000040C0BE0D1F80880B8F1010F03D14FF075
:10037000080C1C6102E04FF0080C5C6103E04FF0D8
:10038000000C00E000BF00BFFF2801D8984601E044
:1003900003F104084646FF2802D84FEA820803E02A
:1003A000A2F108084FEA88084746D6F800804FF0C7
:1003B0000F0909FA07F928EA09080CFA07F900E019
:1003C00085E048EA0908C6F80080D1F8048008F002
:1003D0008058B8F1805F7AD100BFDFF8B081D8F8DB
:1003E000188048F00108DFF8A491C9F81880C846C1
:1003F000D8F8188008F00108CDF8008000BF00BFD1
:100400004FEAB9384FEA920958F829504FEA8278F2
:100410004FEA18794FF00F0808FA09F825EA08059D
:10042000DFF86C81434502D14FF000080FE0DFF8A0
:100430006481434502D14FF0010808E0DFF858819C
:10044000434502D14FF0020801E04FF003084FEAA4
:1004500082794FEA197908FA09F848EA0505DFF8C0
:100460003C814FEA920948F82950D1F8048008F4F9
:100470008038B8F5803F0AD1DFF82481D8F80080B1
:1004800048EA0008DFF81891C9F8008009E0DFF8B1
:100490001081D8F8008028EA0008DFF80491C9F834
:1004A0000080D1F8048008F40038B8F5003F0FD17F
:1004B000DFF8EC8008F10408D8F8008048EA00086A
:1004C000DFF8DC9009F10409C9F800800EE055E07E
:1004D000DFF8CC8008F10408D8F8008028EA00088A
:1004E000DFF8BC9009F10409C9F80080D1F8048054
:1004F00008F48018B8F5801F0ED1DFF8A48008F149
:100500000808D8F8008048EA0008DFF8949009F15C
:100510000809C9F800800DE0DFF8848008F10808B8
:10052000D8F8008028EA0008DFF8749009F108097B
:10053000C9F80080D1F8048008F40018B8F5001F4D
:100540000ED1DFF85C8008F10C08D8F8008048EA8A
:100550000008DFF84C9009F10C09C9F800800DE0A3
:10056000DFF83C8008F10C08D8F8008028EA000881
:10057000DFF82C9009F10C09C9F80080521C102AF0
:10058000FFF496AEBDE8F88700001110001002409D
:1005900000080140000C014000100140080001402B
:1005A000000401400AB1016101E00B0403617047DE
:1005B00001480068704700000400002002480068FD
:1005C000401C0149086070470400002010B508482D
:1005D000006840F0100006490860052000F05CF853
:1005E0000F2000F007F800F017F8002010BD000001
:1005F0000020024070B5044600F0AEF94FF47A7165
:10060000B0FBF1F5284600F057FE00222146501EAF
:1006100000F003F8002070BD70472DE9F05F8046C0
:100620000D461646002700F089FF074639462A4640
:10063000334601F00700C0F1070ABAF1040F02D9EE
:100640004FF0040A01E0C0F1070AD14600F1040AA4
:10065000BAF1070F02D24FF0000A01E0A0F1030A3D
:10066000D4464FF0010A0AFA09FAAAF1010A0AEA85
:10067000020A0AFA0CFA4FF0010B0BFA0CFBABF171
:10068000010B0BEA030B4AEA0B042146404600F03B
:100690005DFFBDE8F09F000000BF00F00702064BC1
:1006A00019684FF6FF031940044B0B4343EA02213C
:1006B000014B196000BF70470CED00E00000FA0527
:1006C00070B504460D4600269F48006800F00700FC
:1006D000A8420ED29C48006820F0070028439A499F
:1006E00008600846006800F00700A84201D0012019
:1006F00070BD207800F00200022807D193484068BE
:1007000020F0F000A168084390494860207800F08C
:10071000010000287CD0606801282DD12020010331
:1007200091FAA1F1B1FA81F108430121B1EB601F07
:1007300002D1864800680FE02020010391FAA1F160
:10074000B1FA81F108430221B1EB601F02D17F4869
:10075000006A01E07D48406A20210A0392FAA2F271
:10076000B2FA82F2114301F01F02012191400840C8
:10077000002860D10120BBE7606802282CD120202E
:10078000010591FAA1F1B1FA81F108430121B1EB20
:10079000601F02D16D4800680FE02020010591FA2A
:1007A000A1F1B1FA81F108430221B1EB601F02D13E
:1007B0006648006A01E06548406A20210A0592FA0D
:1007C000A2F2B2FA82F2114301F01F02012191401C
:1007D000084078BB01208BE72020022191FAA1F18B
:1007E000B1FA81F108430121B1EB601F02D15748F2
:1007F000006810E02020022191FAA1F1B1FA81F104
:1008000008430221B1EB601F03D15048006A02E0A7
:1008100054E04E48406A2021022292FAA2F2B2FA33
:1008200082F2114301F01F0201219140084008B9F2
:1008300001205DE7FFE74548406820F0030061685C
:10084000084342494860FFF7B3FE06466068012846
:1008500010D108E0FFF7ACFE801B41F288318842DE
:1008600001D9032044E73948406800F00C0004280F
:10087000F0D123E06068022810D108E0FFF798FE6D
:10088000801B41F28831884201D9032030E72F488C
:10089000406800F00C000828F0D10FE008E0FFF7F6
:1008A00087FE801B41F28831884201D903201FE76F
:1008B0002648406800F00C000028F0D1224800686B
:1008C00000F00700A8420ED91F48006820F007007A
:1008D00028431D4908600846006800F00700A84248
:1008E00001D0012004E7207800F00400042807D19B
:1008F0001648406820F4E060E16808431349486006
:10090000207800F00800082808D11048406820F43A
:100910006050216940EAC1000C49486000F022F8AB
:100920000A49496801F0F001F02292FAA2F2B2FA03
:1009300082F2D140064A515CC840064908600F2047
:10094000FFF758FE0020D3E60020024000100240CE
:10095000C01800080000002001480068704700002F
:1009600000000020F0B585B00FF28C0C9CE8E01080
:1009700001A8A0E8E01024A52D680095002100241E
:10098000002200230020214D696801F00C056DB3A1
:10099000042D02D0082D28D101E01D4828E001F4E3
:1009A00070154FF4701696FAA6F6B6FA86F6F5406C
:1009B00001AE735D01F4803595B1144D6D6805F499
:1009C00000354FF4003696FAA6F6B6FA86F6F540EC
:1009D0001DF805400E4DB5FBF4F505FB03F202E0F2
:1009E0000C4D03FB05F2104602E000BF084800BFB3
:1009F00000BF05B0F0BD00000203040506070809AA
:100A00000A0B0C0D0E0F1010010200000010024026
:100A100000127A0000093D0038B504460025207810
:100A200000F0010000287CD0F848406800F00C007D
:100A300004280CD0F548406800F00C00082837D195
:100A4000F248406800F48030B0F5803F30D120207B
:100A5000010391FAA1F1B1FA81F108430121B1EB4F
:100A6000601F02D1E94800680FE02020010391FADD
:100A7000A1F1B1FA81F108430221B1EB601F02D16B
:100A8000E248006A01E0E148406A20210A0392FA44
:100A9000A2F2B2FA82F2114301F01F020121914049
:100AA00008400028BFD0606800283AD1012038BD36
:100AB00000BF6068B0F5803F06D1D448006840F4BC
:100AC0008030D249086028E0606858B9CF48006893
:100AD00020F48030CD4908600846006820F480206A
:100AE00008601AE06068B0F5A02F0BD1C748006815
:100AF00040F48020C54908600846006840F4803012
:100B000008600AE0C148006820F48030BF490860EE
:100B10000846006820F48020086000BF6068C8B301
:100B200000E06FE0FFF744FD054606E0FFF740FDFB
:100B3000401B642801D90320B9E72020010391FA62
:100B4000A1F1B1FA81F108430121B1EB601F02D19B
:100B5000AE4800680FE02020010391FAA1F1B1FA3C
:100B600081F108430221B1EB601F02D1A748006A5E
:100B700001E0A648406A20210A0392FAA2F2B2FAE2
:100B800082F2114301F01F02012191400840002828
:100B9000CCD037E0FFE7FFF70BFD054606E0FFF797
:100BA00007FD401B642801D9032080E720200103B2
:100BB00091FAA1F1B1FA81F108430121B1EB601F73
:100BC00002D1924800680FE02020010391FAA1F1C0
:100BD000B1FA81F108430221B1EB601F02D18B48C9
:100BE000006A01E08948406A20210A0392FAA2F2D1
:100BF000B2FA82F2114301F01F0201219140084034
:100C00000028CCD1207800F0020002284ED17F4885
:100C1000406800F00C0050B17C48406800F00C00C7
:100C2000082844D17948406800F4803078BB2020FF
:100C3000022191FAA1F1B1FA81F108430121B1EB4E
:100C4000601F02D1714800680FE02020022191FA54
:100C5000A1F1B1FA81F108430221B1EB601F02D189
:100C60006A48006A01E06948406A2021022292FA3B
:100C7000A2F2B2FA82F2114301F01F020121914067
:100C8000084028B12069012802D001200FE70EE0BA
:100C90005E48006820F0F800F82292FAA2F2B2FA58
:100CA00082F26169914008435849086091E02069E7
:100CB000F0B3012090FAA0F1B1FA81F1544A42F860
:100CC0002100FFF775FC054606E0FFF771FC401BAD
:100CD000022801D90320EAE62020022191FAA1F19D
:100CE000B1FA81F108430121B1EB601F02D14748FD
:100CF00000680FE02020022191FAA1F1B1FA81F100
:100D000008430221B1EB601F02D14048006A01E0B4
:100D10003E48406A2021022292FAA2F2B2FA82F2FE
:100D2000114301F01F02012191400840002800E01A
:100D30000FE0CAD03548006820F0F800F82292FA97
:100D4000A2F2B2FA82F26169914008432F49086029
:100D50003FE00020012191FAA1F1B1FA81F12C4A82
:100D600042F82100FFF724FC054606E0FFF720FCCF
:100D7000401B022801D9032099E62020022191FA84
:100D8000A1F1B1FA81F108430121B1EB601F02D159
:100D90001E4800680FE02020022191FAA1F1B1FA6B
:100DA00081F108430221B1EB601F02D11748006AAC
:100DB00001E01648406A2021022292FAA2F2B2FA19
:100DC00082F2114301F01F020121914008400028E6
:100DD000CCD1207800F0080008284BD1A069A8B336
:100DE000012191FAA1F0B0FA80F0094A02EB8000EB
:100DF000C0F88014FFF7DCFB05460BE0FFF7D8FBDB
:100E0000401B022806D9032051E6000000100240D2
:100E1000000042426020022191FAA1F1B1FA81F171
:100E200008430121B1EB601F02D1F948006810E0CE
:100E30006020022191FAA1F1B1FA81F10843022167
:100E4000B1EB601F03D1F248006A02E013E0F04802
:100E5000406A6021022292FAA2F2B2FA82F21143AF
:100E600001F01F020121914008400028C6D0012056
:100E7000FFF707FA41E00020012191FAA1F1B1FA50
:100E800081F1E44A02EB8101C1F88004FFF790FB95
:100E9000054606E0FFF78CFB401B022801D9032022
:100EA00005E66020022191FAA1F1B1FA81F108432F
:100EB0000121B1EB601F02D1D54800680FE060202E
:100EC000022191FAA1F1B1FA81F108430221B1EBBB
:100ED000601F02D1CE48006A01E0CD48406A60211F
:100EE000022292FAA2F2B2FA82F2114301F01F0238
:100EF0000121914008400028CCD1207800F0040066
:100F0000042875D100BFC248C06940F08050C04974
:100F1000C8610846C06900F08050009000BF00BF63
:100F2000BD48006840F48070BB490860FFF740FB93
:100F3000054606E0FFF73CFB401B642801D903206F
:100F4000B5E5B548006800F480700028F2D000BF15
:100F5000E068012806D1AE48006A40F00100AC49C3
:100F6000086227E0E06858B9A948006A20F001004B
:100F7000A74908620846006A20F00400086219E0E8
:100F8000E06805280BD1A248006A40F00400A0499F
:100F900008620846006A40F0010008620AE09C48C6
:100FA000006A20F001009A4908620846006A20F0B1
:100FB0000400086200BFE068D0B3FFF7F9FA054605
:100FC00008E0FFF7F5FA401B41F28831884201D969
:100FD00003206CE54020022191FAA1F1B1FA81F1E0
:100FE00008430121B1EB601F03D18948006810E07C
:100FF00058E04020022191FAA1F1B1FA81F10843B1
:101000000221B1EB601F02D18148006A01E08048F3
:10101000406A4021022292FAA2F2B2FA82F211430D
:1010200001F01F020121914008400028C9D039E099
:10103000FFE7FFF7BDFA054608E0FFF7B9FA401BE6
:1010400041F28831884201D9032030E54020022155
:1010500091FAA1F1B1FA81F108430121B1EB601FCE
:1010600002D16B4800680FE04020022191FAA1F103
:10107000B1FA81F108430221B1EB601F02D164484B
:10108000006A01E06248406A4021022292FAA2F21C
:10109000B2FA82F2114301F01F020121914008408F
:1010A0000028CAD1E069002873D05948406800F090
:1010B0000C0008286ED0E06902286CD100204FF0A7
:1010C000807191FAA1F1B1FA81F1524A42F82100FE
:1010D000FFF76EFA054606E0FFF76AFA401B0228A2
:1010E00001D90320E3E42020010591FAA1F1B1FA2E
:1010F00081F108430121B1EB601F02D1444800682F
:101100000FE02020010591FAA1F1B1FA81F1084325
:101110000221B1EB601F02D13D48006A01E03C486A
:10112000406A20210A0592FAA2F2B2FA82F2114331
:1011300001F01F020121914008400028CCD1206A13
:10114000B0F5803F07D13248406820F40030A168F4
:1011500008432F494860D4E9080108432C494968ED
:1011600021F4741108432A4948600121080690FAC5
:10117000A0F0B0FA80F0274A42F82010FFF718FAE2
:10118000054609E0FFF714FA401B022804D90320A2
:101190008DE479E076E02CE02020010591FAA1F1C0
:1011A000B1FA81F108430121B1EB601F02D1184867
:1011B00000680FE02020010591FAA1F1B1FA81F158
:1011C00008430221B1EB601F02D11148006A01E01F
:1011D0000F48406A20210A0592FAA2F2B2FA82F27E
:1011E000114301F01F020121914008400028C9D09D
:1011F0004AE000204FF0807191FAA1F1B1FA81F13B
:10120000044A42F82100FFF7D3F905460DE000003B
:10121000001002400000424200700040FFF7C8F991
:10122000401B022801D9032041E42020010591FA46
:10123000A1F1B1FA81F108430121B1EB601F02D1A4
:10124000124800680FE02020010591FAA1F1B1FADF
:1012500081F108430221B1EB601F02D10B48006A03
:1012600001E00A48406A20210A0592FAA2F2B2FA85
:1012700082F2114301F01F02012191400840002831
:10128000CCD101E0012012E4002010E40010024063
:10129000042808D14FF0E021096941F004014FF022
:1012A000E022116107E04FF0E021096921F004011B
:1012B0004FF0E0221161704770B504462546681E64
:1012C000B0F1807F01D301200FE0681E4FF0E021D4
:1012D00048610F214FF0FF3000F038F900204FF047
:1012E000E021886107200861002070BD7047014639
:1012F00091F839007047F8B50446002500262068AB
:10130000006800F001052068C06800F4807625B10F
:101310001EB1E06B40F00100E06320680068C0F39C
:1013200040052068406900F0010625B11EB1E06B60
:1013300040F00400E06320680068C0F3800525B138
:101340001EB1E06B40F00200E06320680068C0F36B
:10135000C00525B11EB1E06B40F00800E0632068D5
:101360000068C0F340152068C06800F020061DB179
:1013700016B1204600F074F920680068C0F3C0156B
:101380002068C06800F080061DB116B1204600F04C
:10139000C5F920680068C0F380152068C06800F0B7
:1013A00040061DB116B1204600F042F9E06B70B165
:1013B00000BF20680068009020684068009000BF6F
:1013C00000BF012084F839002046FFF78FFFF8BDE9
:1013D00030B50346002493F83940012C01D0122C7B
:1013E00037D101B10AB9012030BD00BF93F83800F0
:1013F000012801D10220F7E7012083F8380000BF5F
:1014000099629A85DA850020D86393F8390012280A
:1014100003D1322083F8390002E0222083F839001A
:1014200000BF002083F8380000BF1868C06840F48F
:1014300080701D68E8601868406940F001001D6810
:1014400068611868C06840F020001D68E8600020EE
:10145000CAE70220C8E700001D4A0168914236D160
:101460001C49098801F4004189BB1A49098801F423
:10147000804171B1184909780A2903D00021154A21
:10148000118024E01349098841F40041114A118078
:101490001DE0114909780D2906D10E49098841F44A
:1014A00080410C4A118012E00B490978094A1288E0
:1014B000C2F30D02094B995406490988491C054A93
:1014C000118011460988C72901DD0021118070476C
:1014D00000380140100000201200002014000020FD
:1014E000704700BFFEE7000000B585B000BF0F48A1
:1014F000806940F004000D4988610846806900F069
:101500000400009000BF00BFFF2001900120029066
:1015100003900320049001A90548FEF7BFFE0122B5
:10152000FF210348FFF73EF805B000BD0010024060
:101530000008014000BFFEE7704700000248006855
:10154000C0F30220704700000CED00E010B5002849
:1015500007DA0A07140E054A00F00F031B1FD454C4
:1015600003E00A07130E024A135410BD18ED00E001
:1015700000E400E07047704730B58FB005460024A6
:1015800001200590000406900020079002200C9096
:10159000C1030D910E9505A8FFF73EFA04460CB164
:1015A00000BFFEE70F200090022001900020029073
:1015B0004FF4806003900020049002216846FFF7FA
:1015C0007FF804460CB100BFFEE70FB030BD10B588
:1015D000FEF7F4FF10BD00001148006840F0010064
:1015E0000F490860084640680E4908400C494860A9
:1015F000084600680C490840094908600846006828
:1016000020F4802008600846406820F4FE0048600E
:101610004FF41F008860C803044908607047000049
:10162000001002400000FFF8FFFFF6FE08ED00E0AA
:1016300010B504462068C06820F040002168C860EA
:1016400094F83900322803D1222084F8390002E0CE
:10165000012084F839002046FFF742FF002010BD2A
:1016600070B50446002694F83960222E01D0322E3F
:1016700052D1A068B0F5805F13D1A56A206940B946
:1016800020684068C0F308002880A06A801CA0621F
:1016900019E020684068C0B22880A06A401CA0629F
:1016A00011E0206938B920684068C1B2A26A501CB4
:1016B000A062117007E02068406800F07F01A26A14
:1016C000501CA0621170E08D401E80B2E08508BB06
:1016D0002068C06820F020002168C86094F83900B4
:1016E000322803D1122084F839000EE02068C06847
:1016F00020F480702168C8602068406920F00100F3
:1017000021684861012084F839002046FFF7A4FED3
:10171000002070BD0020FCE70220FAE710B501466A
:10172000002391F83930122B01D0322B2CD188684C
:10173000B0F5805F0FD10A6A1088C0F308000C680A
:101740006060086918B9086A801C086209E0086AC4
:10175000401C086205E00C6A601C086220780C6876
:101760006060C88C401E80B2C88458B90868C068E0
:1017700020F080000C68E0600868C06840F040001D
:101780000C68E060002010BD0220FCE710B50024CA
:101790000C48FFF7B0FD00BF01E0641C00BF094822
:1017A000FFF7A5FD0128F8D100BF002401E0641C6B
:1017B00000BF012204490348FFF70AFE0028F6D1C2
:1017C00000BF10BDDC0000201200002000BFFEE7BB
:1017D00000BF704710B504460420FFF759FD0148CB
:1017E000046010BD0800002030B50446002504E068
:1017F0004FF47A7000F004F86D1CA542F8D330BDA8
:1018000070B5034600224FF0E02675690D4E36682C
:1018100003FB06F44FF0E026B16910E04FF0E0263C
:10182000B06988420BD0884202D20E1A324402E0DC
:101830002E1A0E4432440146A24200D300E0EDE7E6
:1018400000BF70BD08000020FEF7C0FE4FF4E0109E
:10185000FFF792FE4820FFF7BDFFFFF745FE2AE0A5
:101860000020154908601549C1F884011249083162
:101870000860091D0860091D0860091D0860091D30
:1018800008600E49C1F89C010120FFF7ADFF01205F
:1018900009490860091D0860091D0860091D0860E4
:1018A000091D0860091D0860091D08600349C1F889
:1018B0009C01FFF799FFD3E78001214200002142FC
:1018C00000000000000000000102030406070809F0
:1018D0000000000001020304F818000800000020C6
:1018E000140000006C0100080C190008140000200E
:1018F0006C0700008801000800A24A0400000000F4
:0C190000000000000000000000000000DB
:0400000508000131BD
:00000001FF
