:020000040800F2
:10000000800F00107D020008E93E00083738000824
:10001000BD3D0008D90A0008BD5E000800000000D0
:10002000000000000000000000000000A501000822
:100030002D0B000800000000F9010008B945000878
:10004000970200089702000897020008970200082C
:10005000970200089702000897020008970200081C
:10006000970200089702000897020008970200080C
:1000700097020008DD0A000897020008ED0A000850
:1000800097020008970200089702000897020008EC
:1000900097020008970200089702000897020008DC
:1000A00051460008970200089702000897020008CE
:1000B00097020008000000000000000097020008FE
:1000C00097020008970200089702000897020008AC
:1000D00097020008595E000897020008970200087E
:1000E00097020008970200080000000000000000CE
:1000F0000000000000000000000000000000000000
:1001000000000000970200080000000097020008AD
:10011000000000000000000097020008614600088F
:10012000970200089702000897020008970200084B
:10013000970200080000000000000000000000001E
:1001400097020008970200089702000800000000CC
:10015000970200089702000897020008970200081B
:1001600097020008970200089702000800000000AC
:10017000970200089702000800000000000000003D
:10018000970200089702000897020008DFF810D0D5
:1001900000F03EFB0048004741360108AFF3008005
:1001A000800F00102A4B1968086800F056B880F3D9
:1001B0000988BFF36F8F4FF0000080F311887047FC
:1001C0000000000006480068006880F3088862B6F6
:1001D00061B6BFF34F8FBFF36F8F00DF00BF00BF6B
:1001E00008ED00E0DFF80C00016841F470010160E7
:1001F000704700BF88ED00E0EFF30980BFF36F8F19
:10020000134B1A681EF0100F08BF20ED108A20E96A
:10021000F04F106008B44FF0500080F31188BFF326
:100220004F8FBFF36F8F14F0FBFB4FF0000080F394
:10023000118808BC1968086800F014B81EF0100F87
:1002400008BF00F014B880F30988BFF36F8F7047C0
:10025000A40C0020EFF30580704730C8B0E8C04F11
:10026000FFF7A5BF30C8B0E8C04FFFF7E7BFB0EC5D
:10027000088AB0EC08CAFFF7E6BF000006488047CE
:1002800006480047FEE7FEE7FEE7FEE7FEE7FEE77B
:10029000FEE7FEE7FEE7FEE73D4600088D010008A9
:1002A0002DE9F05F0546002092469B4688460646AB
:1002B000814640241BE0284641464746224600F03E
:1002C0009CF853465A46C01A914110D3114618461D
:1002D000224600F083F82D1A67EB01084F462246AC
:1002E0000120002100F07AF817EB00094E41201E92
:1002F000A4F10104DFDC484631462A46434600F0BB
:1003000000B830BCBDE8C09F40EA01039B0703D0A2
:1003100009E008C9121F08C0042AFAD203E011F844
:10032000013B00F8013B521EF9D27047D2B201E006
:1003300000F8012B491EFBD270470022F6E710B5EA
:1003400013460A4604461946FFF7F0FF204610BD43
:10035000421C10F8011B0029FBD1801A704703468C
:1003600011F8012B00F8012B002AF9D1184670472B
:1003700070B5064605F022FE046805460A220021F3
:10038000304600F04AF82C6070BD00F0004230F0BA
:1003900000400AD0C10D01F56071C0F3160042EAB9
:1003A0000151C208400711437047002001467047C1
:1003B00030B50B46014600202022012409E021FA35
:1003C00002F59D4205D303FA02F5491B04FA02F532
:1003D0002844151EA2F10102F1DC30BD202A04DB05
:1003E000203A00FA02F1002070479140C2F1200348
:1003F00020FA03F3194390407047202A04DB203A87
:1004000021FA02F00021704721FA02F3D040C2F134
:10041000200291400843194670472DE9F047914664
:100420000F4680460446002614F8015B2DB100F00B
:1004300013FA0068405DC007F6D12B2D02D02D2D98
:1004400018D0641E4A463946204600F009FA27B102
:100450003968A14201D1C7F8008071054FF002044C
:100460000BD54042002803DD05F0A8FD0460A0077D
:10047000BDE8F08746F48066E4E70028F8DA05F086
:100480009DFD04606FF00040F2E72DE9FE4F8046CD
:1004900081EA0300C00F0C46009021F0004123F0D8
:1004A0000045B8EB0200A94105D2404621469046DE
:1004B0001C460B46024623F00040104347D0270D50
:1004C000C7F30A00C3F30A510290401A0190402872
:1004D0006BDAC3F3130040F4801B0098924620B1FE
:1004E0000023D2EB030A63EB0B0B01985946C0F1D2
:1004F00040025046FFF772FF06460D4650465946E9
:10050000019A00F097F910EB08006141002487EA96
:10051000115284EAE7731A4340D0009A62B3019AF9
:10052000012A4FEA075215DC001B61EB02014FF074
:10053000004202EA0752CDE90042001C41F5801159
:1005400032462B4600F0EDF903B000F045B84046C6
:100550002146F9E7001B61EB0201001C41F5801305
:1005600000185B412018A2F5001747EB030140EA91
:10057000D570B6196D4111E06D084FEA360645EAAF
:10058000C0754FEA0752001B61EB0201001C41F5E8
:10059000801149084FEA30000019514132462B467C
:1005A00003B000F01CB800F0ADB900980122400083
:1005B0000023D0EB020263EBE073009821464FEA80
:1005C000E074B8EB000061EB0401E9E783F000435D
:1005D0005BE781F0004158E730BCBDE8C08F30BC1C
:1005E000BDE8C04FFFF7DFBF2DE9FE4F81EA0304EE
:1005F00004F0004421F0004100944FF0000B23F080
:10060000004350EA01045ED052EA03045BD0C3F316
:100610000A54C1F30A552C44A4F2F3340194A0FB0C
:100620000254C1F3130141F48011C3F3130343F4E3
:10063000801301FB024400FB034E840A970A44EA3C
:10064000815447EA8357A4FB076802958D0A05FB8E
:1006500007854FEA932C04FB0C542705029D4FEAB3
:10066000065847EA1637B5EB08056EEB070C870E00
:10067000920E47EA811742EA8312A7FB0201B6EB0A
:100680000B0164EB00042B0D43EA0C335E1844EBC2
:100690001C50DA465146E7FB0201C5F313044FEA4A
:1006A0000B3343EA14534FEA0432019C43EA060336
:1006B000A4F10C040294009CCDE900B400F031F9DF
:1006C00003B000F003B800200146F9E730BCBDE8F4
:1006D000C08F2DE9F04D81EA030404F0004B21F0B6
:1006E000004514464FF0000A23F0004150EA05028D
:1006F00020D054EA01021DD0C5F30A570246C5F3C3
:100700001303C1F31300C1F30A5640F4801543F4F8
:100710008013A7EB0608101BD64608F2FD3873EBD2
:10072000050002D308F1010801E092185B41B8F11D
:10073000000F03DA00200146BDE8F08D00204FF4E1
:100740008011064684460EE0171B73EB050705D3A0
:10075000121B63EB050306434CEA010C49084FEA00
:10076000300092185B4150EA0107EDD152EA0300D4
:1007700012D082EA040083EA0501084305D0101B69
:10078000AB4106D20122002306E000224FF00043D5
:1007900002E06FF0010253101AEB06004CEB085117
:1007A00010EB0A0041EB0B01BDE8F04D00F0AAB8D8
:1007B000C1F30A52C1F3130140F2FF3341F4801137
:1007C0009A4202DA00200146704740F233439A42CF
:1007D000A2F2334202DC5242FFF70FBEFFF7FEBD2A
:1007E00030B5041E71F1000404DB4FF000444042B8
:1007F00064EB0101141E73F1000405DB1C464FF08D
:100800000043524263EB0403994208BF904230BD5B
:10081000064C074D06E0E06840F0010394E807004D
:1008200098471034AC42F6D3FFF7B4FC04740108C7
:1008300044740108202A06DBCB17203A41FA02F063
:1008400043EAE07306E041FA02F3D040C2F120022D
:10085000914008431946704700487047E07301080B
:100860002DE9F05F82460078002715468B460AF195
:100870000104B946302801D09DB113E014F8010BF2
:100880000127782803D0582801D045B10AE00DB1DE
:10089000102D07D10027102514F8010B02E00825C0
:1008A00000E00A250026B0460EE005FB080005FB27
:1008B00006F1012701EB10461FFA80F8B6F5803FDC
:1008C00000D3B94614F8010B294600F078F8002847
:1008D000EBDABBF1000F05D00FB1641E00E0544607
:1008E000CBF80040B9F1000F06D005F067FB0221FC
:1008F0000160C81E00F003B848EA0640FAE730BCC1
:10090000BDE8C09F10B5141E73F1000408DA401C46
:1009100041F1000192185B411A4301D120F001001E
:1009200010BD2DE9F04D92469B4611B1B1FA81F20E
:1009300002E0B0FA80F220329046FFF74FFD044605
:100940000F4640EA0A0041EA0B0153465A46084363
:1009500013D0114653EA010019D0C8F140025046A5
:10096000FFF74BFD05460E46504659464246FFF7F7
:1009700035FD084305D0012004E020463946BDE896
:10098000F08D0020054346EAE0762C4337430A9871
:100990006305E40AA0EB08000022FD0A44EA47547C
:1009A0000A3002D500200146E9E701051019694126
:1009B000DDE9084500196941BDE8F04DA2E73A2894
:1009C00000D2303820F02002412A01D3A2F13700B2
:1009D000884201D34FF0FF30704770B58C1810F883
:1009E000015B15F0070301D110F8013B2A1106D174
:1009F00010F8012B03E010F8016B01F8016B5B1E8E
:100A0000F9D12B0705D40023521E0DD401F8013B68
:100A1000FAE710F8013BCB1A921C03E013F8015BD4
:100A200001F8015B521EF9D5A142D8D3002070BD58
:100A30001CB513F091FE1348082100238A01CDE96B
:100A4000001011A1164814F059F816480721002388
:100A50004FF48062CDE9001013A1184814F04EF84D
:100A60001748062100234FF40072CDE9001015A1AC
:100A7000174814F043F81748006813F0D7FE13F036
:100A80007DFE1CBD080000205573617274446174C2
:100A900061416E616C797369735F5461736B0000BF
:100AA000C15E00080C0000205549496E74657266ED
:100AB0006163655F5461736B00000000C9520008F8
:100AC000100000204C56474C5F5441534B0000002F
:100AD000313B00080400002000BFFEE710B50248CB
:100AE00000F07EF910BD0000D401001010B50248DE
:100AF00000F076F910BD0000000F002030B590F82E
:100B0000444004F01C050124AC40056C6C60046892
:100B100063608468102C04D10468A2600468E160FA
:100B200003E00468A1600468E26030BD704772B6FB
:100B300000BFFEE71B49087F012801D0032816D11A
:100B40001949096821F40071174A116000BF114664
:100B5000096841F4006111601146096821F40061DF
:100B6000116000BF1146096841F40071116002284C
:100B700001D0032811D100BF0B49096841F480510D
:100B8000094A11601146096821F48051116000BFC3
:100B90001146096841F4806111600021014A117712
:100BA00070470000000000100020024000F001012A
:100BB00029B10649496941F00401044A51610349D8
:100BC000496941F48031014A516170470020024077
:100BD000094A526922F47E72C3B242EAC302064B4A
:100BE0005A611A46526942F002025A611A46526923
:100BF00042F480325A6170470020024010B5084923
:100C0000496941F00101064C6161026000BF00BF0B
:100C100000BFBFF36F8F00BF00BF00BF436010BDB8
:100C200000200240F0B50246402314460D460C4E0B
:100C3000766946F480260A4F7E6100BFEFF3108686
:100C4000304672B600BF2E682660241D2D1D5E1E24
:100C5000F3B2002BF7D100BF80F3108800BFF0BDC6
:100C60000020024070B5054600F00CFC064608E086
:100C7000681C30B100F006FC801BA84201D30320A1
:100C800070BD1948006900F480300028F0D1164882
:100C90000069164900EA0104CCB1154840682043B8
:100CA0001349486000BF04F0404030B10E488069ED
:100CB00004F0404108430C49886124F0404018B1D9
:100CC00024F040400849086100BF0120D8E70648E9
:100CD000006900F0010020B100BF01200249086155
:100CE00000BF0020CCE7000000200240FAC3020051
:100CF0000000001001460020094A128892B24FF607
:100D0000FF739A4202D14FF4802203E0044A128812
:100D10001204920902F100628A4200D90120704750
:100D2000E075FF1F0146002291F82500022808D037
:100D30000420C86300BF002081F8240000BF012008
:100D400070470868006820F00E000B68186008689B
:100D5000006820F001000B68186091F8440000F072
:100D60001C03012098400B6C5860012081F825007D
:100D700000BF002081F8240000BF1046E0E770B5F6
:100D80000446002594F82500022803D00420E063DF
:100D9000012520E02068006820F00E00216808602E
:100DA0002068006820F001002168086094F8440081
:100DB00000F01C0101208840216C4860012084F86B
:100DC000250000BF002084F8240000BFA06B10B1F4
:100DD0002046A16B8847284670BD0146C86B704706
:100DE00070B50446206C05682068066894F84400D5
:100DF00000F01C01042088402840E0B106F0040007
:100E0000C8B12068006800F0200028B92068006898
:100E100020F004002168086094F8440000F01C01F0
:100E200004208840216C4860206B002856D0204662
:100E3000216B884752E094F8440000F01C01022026
:100E40008840284018B306F0020000B3206800680C
:100E500000F0200040B92068006820F00A002168F6
:100E60000860012084F8250094F8440000F01C017B
:100E700002208840216C486000BF002084F82400D4
:100E800000BFE06A50B32046E16A884726E094F844
:100E9000440000F01C01082088402840F0B106F012
:100EA0000800D8B12068006820F00E0021680860B2
:100EB00094F8440000F01C0101208840216C486037
:100EC0000120E06384F8250000BF002084F824009E
:100ED00000BF606B10B12046616B884770BD000099
:100EE00010B5014609B9012010BD3E4B0868984273
:100EF0000BD23D4B0868C01A1423B0FBF3F08000FE
:100F000048643948083808640AE0364B0868C01A53
:100F10001423B0FBF3F080004864324808380864BA
:100F2000022081F825000868026847F6F0708243C5
:100F3000D1E9020318430B6918434B6918438B69C5
:100F40001843CB6918430B6A1843024308680260D0
:100F50008868B0F5804F3AD0234B083B086C984224
:100F60001BD1D0F8A80091F8443003F01C040F23E3
:100F7000A34098431C4BA033186091F8443003F011
:100F80001C0348689840184B083BD3F8A830184316
:100F9000154B083BC3F8A80019E01248A0300068C0
:100FA00091F8443003F01C040F23A34098430D4BE9
:100FB000A033186091F8443003F01C03486898404F
:100FC000084BA0331B681843064BA0331860002061
:100FD000C863012081F82500002081F8240000BFAB
:100FE00082E7000008040240080002402DE9F041B9
:100FF00004460D4616461F464FF0000800BF94F801
:101000002400012802D10220BDE8F081012084F8EB
:10101000240000BF94F8250001282CD1022084F878
:1010200025000020E0632068006820F001002168AE
:1010300008603B46324629462046FFF75FFD206B9D
:1010400030B12068006840F00E00216808600BE0B5
:101050002068006820F004002168086020680068AB
:1010600040F00A00216808602068006840F0010034
:101070002168086006E000BF002084F8240000BF5B
:101080004FF002084046BFE770B5044600F0FAF999
:1010900006462546681C10B104480078054400BF88
:1010A00000F0F0F9801BA842FAD370BD3800002090
:1010B0002DE9F04104460F4600BF3C480078012866
:1010C00002D10220BDE8F08101203849087000BF3C
:1010D0004CF25030FFF7C6FD0646002E5ED1334974
:1010E00048603348006800F4007090B130480068F0
:1010F00000F4806048B12E48006820F480602C49DC
:10110000086003202949087715E00120274908775E
:1011100011E02748006800F4806048B12448006866
:1011200020F480602249086002202049087702E00C
:1011300000201E490877206801280ED16068FFF75B
:1011400035FD4CF25030FFF78DFD064618484069DA
:1011500020F00400164948611EE04FF0FF3038606F
:10116000A56813E028466168FFF732FD4CF2503065
:10117000FFF778FD06460E48406940F2FA31884391
:101180000B4948610EB13D6005E06D1CD4E90201D8
:101190000844A842E6D800BFFFF7CCFC00BF0020FF
:1011A0000249087000BF30468CE7000000000010C4
:1011B000002002400348406940F000400149486176
:1011C00000207047002002402DE9F0470446884681
:1011D00015461E464FF0000900BF29480078012837
:1011E00002D10220BDE8F08701202549087000BF28
:1011F0004CF25030FFF736FD0746002F38D120491A
:1012000048602048006800F4806048B11D480068CC
:1012100020F480601B49086002201949087702E029
:101220000020174908773CB92A4633464046FFF765
:10123000E5FC4FF001090BE0012C01D0022C07D195
:1012400029464046FFF7EEFC022C01D14FF48029DD
:101250004CF25030FFF706FD0746B9F1000F05D0FC
:101260000848406920EA090006494861FFF762FC26
:1012700000BF00200249087000BF3846B2E70000F6
:10128000000000100020024000200849496901F0D8
:10129000004151B10649054A9160064991601146E5
:1012A000496901F0004101B101207047002002406E
:1012B00023016745AB89EFCD78B503460A46002187
:1012C000C5E001268E40156805EA0604002C73D09F
:1012D000157905F00305012D04D0157905F00305F6
:1012E000022D13D198684E000325B540A8434E0047
:1012F000D568B54028439860586801258D40A843BB
:101300001579C5F300158D4028435860157905F00F
:101310000305032D09D0D8684E000325B540A84326
:101320004E009568B5402843D860157905F003054F
:10133000022D13D1CE0803F1200555F826004D07E4
:10134000EE0E0F25B540A8434E07F60E1569B540C1
:101350002843CE0803F1200545F8260018684E0002
:101360000325B540A843157905F003054E00B540A7
:1013700028431860556805F44035002D66D000BF3D
:10138000364D2D6E45F00105344E356635462D6ED1
:1013900005F00105009500BF00BF4FEAB6358E0885
:1013A00055F826008D072E0F0F25B540A843B3F141
:1013B000904F02D1002515E048E0294DAB4201D104
:1013C00001250FE0274DAB4201D102250AE0264D51
:1013D000AB4201D1032505E0244DAB4201D10425E8
:1013E00000E007258E07360FB5402843204D8E08B4
:1013F00045F826001F4D2868A043556805F4801560
:1014000005B120431B4D28602D1D2868A043556859
:1014100005F4001505B12043164D2D1D2860154D0E
:101420002D1F2868A043556805F4003505B12043F9
:10143000104D2D1F28602D1F2868A043556805F406
:10144000803505B120430B4D083D2860491C1568C7
:10145000CD40002D7FF435AF78BD00000010024074
:101460000004004800080048000C00480010004834
:1014700008000140080401400AB1816100E0816276
:1014800070470000014800687047000030000020ED
:101490000348006803490978084401490860704717
:1014A000300000203800002010B50024032000F098
:1014B000C5F8002000F008F808B1012401E000F0B0
:1014C00047F8204610BD000070B588B004460025DE
:1014D000002600222146372000F06EF8372000F069
:1014E00057F800BF1648806D40F020001449886509
:1014F0000846806D00F02000019000BF00BF02A9E7
:1015000003A800F09BFB00F0C1FB05460D48B5FBAE
:10151000F0F0461E0C480D49086040F2E7310B48D8
:10152000C160466000210161816001F0D1FA20B9FB
:10153000064801F039FB08B070BD0120FBE7000050
:101540000010024040420F00001400401C02001036
:1015500008B500BF0D48006E40F001000B49086659
:101560000846006E00F00100009000BF00BF00BF01
:101570000846806D40F0805088650846806D00F018
:101580008050009000BF00BF08BD00000010024066
:101590000146084600280DDB00BF00BF00F01F0316
:1015A00001229A4043099B0003F1E023C3F8002184
:1015B00000BF00BF00BF70472DE9F05F80460D46B9
:1015C0001646002704F0DEFC074639462A46334615
:1015D00001F00700C0F1070ABAF1040F02D94FF079
:1015E000040A01E0C0F1070AD14600F1040ABAF189
:1015F000070F02D24FF0000A01E0A0F1030AD4461F
:101600004FF0010A0AFA09FAAAF1010A0AEA020AE3
:101610000AFA0CFA4FF0010B0BFA0CFBABF1010BC1
:101620000BEA030B4AEA0B042146404604F0B2FCE5
:1016300000F000B830BCBDE8C09F000000BF00F063
:101640000702064B19684FF6FF031940044B0B4382
:1016500043EA0221014B196000BF70470CED00E026
:101660000000FA050246B2F5007F2AD11D48006845
:1016700000F4C060B0F5007F32D01A48006820F452
:10168000C06040F40070174B1860174800683223A0
:101690005843164BB0FBF3F0411C00E0491E1148C3
:1016A000406900F48060B0F5806F01D10029F5D168
:1016B0000C48406900F48060B0F5806F10D10320C1
:1016C00070470848006800F4C060B0F5806F07D02C
:1016D0000448006820F4C06040F48060014B18604A
:1016E0000020EDE7007000400000002040420F00A5
:1016F0000248006800F4C0607047000000700040BD
:101700002DE9F84304460025A846208800F400602F
:10171000B0F5006F26D1606C68B1B0F5000F03D052
:10172000B0F5400F0ED10CE0D548C06840F48030D1
:10173000D349C86008E00021201D02F021FC0546C5
:1017400002E001E0012500BF00BF55B9CC48883058
:10175000006820F44000616C0843C949C1F8880062
:1017600000E0A846206800F40030B0F5003F75D1D5
:101770004FF00009C248806D012121EA107078B154
:1017800000BFBF48806D40F08050BD498865084665
:10179000806D00F08050009000BF00BF4FF0010945
:1017A000B848006840F48070B6490860FFF76AFEE8
:1017B000074606E0FFF766FEC01B022801D9032595
:1017C00005E0B048006800F480700028F2D000BF47
:1017D0007DBBAB489030006800F44076CEB1A06D80
:1017E000B04216D0A6489030006820F44076A44855
:1017F000D0F8900040F48030A149C1F8900008462C
:10180000D0F8900020F48030C1F890000846C0F86D
:10181000906006F00100A8B1FFF734FE074609E02A
:10182000FFF730FEC01B41F28831884202D9032500
:1018300007E016E092489030006800F002000028AF
:10184000EED000BF5DB98E489030006820F4407043
:10185000A16D08438A49C1F8900003E00CE0A84656
:1018600000E0A846B9F1010F05D18548806D20F050
:1018700080508349886500BF207800F0010048B19E
:101880007F488830006820F00300216A08437C49C3
:10189000C1F88800207800F00200022809D17848B9
:1018A0008830006820F00C00616A08437449C1F870
:1018B0008800207800F00400042809D1704888309E
:1018C000006820F03000A16A08436D49C1F8880023
:1018D000207800F02000202809D16948883000686D
:1018E00020F44060E16A08436549C1F88800208817
:1018F00000F40070B0F5007F09D1614888300068BD
:1019000020F44020E16B08435D49C1F8880020883D
:1019100000F48060B0F5806F09D1594888300068C4
:1019200020F44010216C08435549C1F88800207804
:1019300000F04000402809D151488830006820F468
:101940004050216B08434E49C1F88800207800F0D0
:101950008000802809D14A488830006820F440403F
:10196000616B08434649C1F88800208800F4807004
:10197000B0F5807F09D142488830006820F44030BB
:10198000A16B08433E49C1F88800206800F400209C
:10199000B0F5002F1FD13A488830006820F0406031
:1019A000A16C0843364988310860A06CB0F1006F23
:1019B00006D13348C06840F480103149C8600AE05D
:1019C000A06CB0F1806F06D10121201D02F0D8FA81
:1019D000054605B1A846206800F48020B0F5802FA8
:1019E0001FD127488830006820F04060E16C084330
:1019F000234988310860E06CB0F1006F06D12048BF
:101A0000C06840F480101E49C8600AE0E06CB0F184
:101A1000806F06D10121201D02F0B2FA054605B102
:101A2000A846208800F48040B0F5804F14D11448B7
:101A30008830006820F04050216D084310498831FB
:101A40000860206DB0F1805F06D10221201D02F0F8
:101A500097FA054605B1A846208800F40040B0F585
:101A6000004F09D106488830006820F08040616D41
:101A700008430349C1F888004046BDE8F8830000E8
:101A800000100240007000402DE9F04104460D4670
:101A900014B90120BDE8F0816348006800F0070038
:101AA000A8420ED26048006820F0070028435E4933
:101AB00008600846006800F00700A84201D0012035
:101AC000E8E7207800F0020002280ED15749A0680C
:101AD000896801F0F001884207D95448806820F0F5
:101AE000F000A168084351498860207800F00100A7
:101AF00078B36068032806D14C48006800F0007095
:101B0000D8B90120C6E76068022806D147480068B6
:101B100000F4003088B90120BCE7606830B9434860
:101B2000006800F0020040B90120B3E73F480068B8
:101B300000F4806008B90120ACE73C48806820F0E0
:101B400003006168084339498860FFF79BFC06463B
:101B500009E010E0FFF796FC801B41F288318842D3
:101B600001D9032096E73148806800F00C006168D5
:101B7000B0EB810FEED1207800F0020002280ED1E8
:101B80002A49A068896801F0F001884207D22748F5
:101B9000806820F0F000A16808432449886022484A
:101BA000006800F00700A8420ED91F48006820F026
:101BB000070028431C4908600846006800F0070039
:101BC000A84201D0012065E7207800F00400042835
:101BD00007D11648806820F4E060E16808431349A3
:101BE0008860207800F00800082808D10F48806835
:101BF00020F46050216940EAC1000C49886000F07F
:101C000069F80A498968C1F30311094A515C01F076
:101C10001F01C8400749086007480068FFF754FCE7
:101C20000746384636E70000002002400010024018
:101C30004C4E010800000020340000200F220260FA
:101C40000D4A926802F0030242600B4A926802F069
:101C5000F0028260084A926802F4E062C260064ABA
:101C6000926802F46052D2080261044A126802F0DB
:101C700007020A6070470000001002400020024086
:101C800001480068704700000000002000B5FFF721
:101C9000F7FF05498968C1F30221044A515C01F04C
:101CA0001F01C84000BD0000001002405C4E01084A
:101CB00000B5FFF7E5FF05498968C1F3C221044A71
:101CC000515C01F01F01C84000BD0000001002403F
:101CD0005C4E0108F0B500230020DFF8D4C0DCF82A
:101CE00008C00CF00C01DFF8C8C0DCF80CC00CF028
:101CF000030719B10C291ED1012F1CD1DFF8B0C088
:101D0000DCF800C00CF0080CBCF1000F06D1DFF8C5
:101D1000A0C0DCF894C0CCF3032305E0DFF890C04A
:101D2000DCF800C0CCF30313DFF888C05CF8233084
:101D300041B9184606E0042901D11F4802E00829EC
:101D400000D11E480C2932D1DFF864C0DCF80CC089
:101D50000CF00304012C09D0022C02D0032C04D176
:101D600001E0154A04E0154A02E000BF1A4600BF30
:101D700000BFDFF83CC0DCF80CC0CCF3021C0CF157
:101D80000106DFF82CC0DCF80CC0CCF3062C0CFBF1
:101D900002FCBCFBF6F2DFF818C0DCF80CC0CCF398
:101DA000416C0CF1010C4FEA4C05B2FBF5F0F0BDB3
:101DB00000100240644E01080024F40000127A0072
:101DC0002DE9F843044614B90120BDE8F883F94829
:101DD000806800F00C06F748C06800F00307207820
:101DE00000F01000102877D11EB10C2E76D1012FF3
:101DF00074D1F048006800F0020018B1A06908B979
:101E00000120E2E7EB48216A006800F0080020B1F9
:101E1000E848006800F0F00005E0E648943000680B
:101E200000F47060000981421FD9206A02F06CF949
:101E300008B10120C9E700BFDE48006840F0080093
:101E4000DC4908600846006820F0F000216A084379
:101E5000D849086000BF0846406820F47F40E16927
:101E600040EA0120D34948601FE000BFD148006824
:101E700040F00800CF4908600846006820F0F000F4
:101E8000216A0843CB49086000BF0846406820F437
:101E90007F40E16940EA0120C64948602EB9206AC6
:101EA00002F032F908B101208FE7FFF713FFC149B3
:101EB0008968C1F30311C04A515C01F01F01C84099
:101EC000BE490860BE480068FFF7FEFA8046B8F1D8
:101ED000000F4ED0404678E74BE0FFE7A06980B3A3
:101EE000B448006840F00100B2490860FFF7CAFA40
:101EF000054606E0FFF7C6FA401B022801D9032079
:101F000063E7AC48006800F002000028F2D000BF90
:101F1000A848006840F00800A64908600846006824
:101F200020F0F000216A0843A249086000BF08467B
:101F3000406820F47F40E16940EA01209D49486003
:101F400017E0FFE79B48006820F00100994908600E
:101F5000FFF798FA054606E0FFF794FA401B0228BF
:101F600001D9032031E79348006800F002000028FF
:101F7000F2D1207800F0010000285CD0082E03D0B8
:101F80000C2E0AD1032F08D18A48006800F40030D3
:101F900088B3606878BB012017E700BF6068B0F5C0
:101FA000803F06D18348006840F480308149086052
:101FB0001AE06068B0F5A02F0BD17E48006840F4AD
:101FC00080207C4908600846006840F48030086042
:101FD0000AE07848006820F48030764908600846B6
:101FE000006820F48020086000BF606890B1FFF7AF
:101FF00049FA054607E01EE0FFF744FA401B642853
:1020000001D90320E1E66B48006800F400300028A5
:10201000F2D010E0FFF736FA054606E0FFF732FA95
:10202000401B642801D90320CFE66248006800F411
:1020300000300028F2D1207800F00200022852D1AE
:10204000042E03D00C2E14D1022F12D1594800684F
:1020500000F4806018B1E06808B90120B5E6554881
:10206000406820F0F850217C40EA01605149486006
:1020700039E0E06800B34F48006840F480704D4993
:102080000860FFF7FFF9054606E0FFF7FBF9401B84
:10209000022801D9032098E64648006800F48060D1
:1020A0000028F2D04348406820F0F850217C40EAF4
:1020B00001604049486016E03E48006820F48070A6
:1020C0003C490860FFF7DEF9054606E0FFF7DAF95C
:1020D000401B022801D9032077E63648006800F447
:1020E00080600028F2D1207800F00800082836D15E
:1020F0006069D0B12F489430006840F001002D494C
:10210000C1F89400FFF7BEF9054606E0FFF7BAF9FB
:10211000401B022801D9032057E626489430006866
:1021200000F002000028F1D019E022489430006845
:1021300020F001001F49C1F89400FFF7A3F90546FC
:1021400006E0FFF79FF9401B022801D903203CE677
:1021500018489430006800F002000028F1D120787F
:1021600000F00400042872D14FF000091148806D7E
:1021700000F0805078B900BF0E48806D40F080506C
:102180000C4988650846806D00F08050009000BFC3
:1021900000BF4FF001090B48006800F4807000BBDD
:1021A0000848006840F4807006490860FFF76AF943
:1021B000054610E0001002404C4E010800000020CF
:1021C0003400002000700040FFF75CF9401B02283B
:1021D00001D90320F9E5CA48006800F4807000289E
:1021E000F2D000BFA068012808D1C648006840F0BE
:1021F0000100C4499039C1F8900021E0A068052889
:102200000FD1C048006840F00400BE499039C1F8C1
:1022100090000846D0F8900040F00100C1F890000E
:102220000EE0B848006820F00100B6499039C1F8C6
:1022300090000846D0F8900020F00400C1F890000B
:1022400000BFA068A0B1FFF71DF9054609E02EE028
:10225000FFF718F9401B41F28831884201D9032069
:10226000B3E5A848006800F002000028F0D012E0B2
:10227000FFF708F9054608E0FFF704F9401B41F2B3
:102280008831884201D903209FE59E48006800F00C
:1022900002000028F0D1B9F1010F07D19948903818
:1022A000806D20F0805097499039886500BF207874
:1022B00000F02000202838D1606AD8B19148083059
:1022C000006840F001008F499039C1F89800FFF78D
:1022D000D9F8054606E0FFF7D5F8401B022801D9DA
:1022E000032072E587480830006800F002000028EB
:1022F000F1D01AE083480830006820F001008149DD
:102300009039C1F89800FFF7BDF8054606E0FFF7E1
:10231000B9F8401B022801D9032056E57948083056
:10232000006800F002000028F1D1A06A00287DD0EA
:10233000A06A02287BD173489038C76807F0030170
:10234000E06A814225D107F07001206B401EB1EB9D
:10235000001F1ED107F4FE41606BB1EB002F18D1B6
:1023600007F078413820005DB1EBC06F11D107F460
:10237000C001A08F0122C2EB5000B1EB405F08D139
:1023800007F0C0614020005DC2EB5000B1EB406F30
:1023900066D00C2E62D05B489038006800F08060F8
:1023A00008B1012011E557489038006820F080708E
:1023B000544990390860FFF765F8054606E0FFF7D5
:1023C00061F8401B022801D90320FEE44D489038F3
:1023D000006800F000700028F1D1D4E90B10401E15
:1023E00041EA0011606B41EA0021A08F0122C2EB9B
:1023F000500041EA40514020005DC2EB500041EAEC
:1024000040613820005D41EAC0603E499039C968AA
:102410003D4A114008433B499039C860084600686E
:1024200040F0807008600846C06801E053E03DE07D
:1024300040F08070C860FFF725F8054606E0FFF71A
:1024400021F8401B022801D90320BEE42D48903812
:10245000006800F000700028F1D04FE00120B4E4E3
:1024600028489038006800F00070A0BB25489038DC
:10247000006840F080702349903908600846C068C1
:1024800040F08070C860FEF7FDFF054606E0FEF7ED
:10249000F9FF401B022801D9032096E4194890381F
:1024A000006800F000700028F1D027E00C2E23D047
:1024B00014489038006820F0807012499039086004
:1024C000FEF7E0FF054607E0FEF7DCFF401B0228B1
:1024D00002D9032079E411E00A489038006800F03E
:1024E00000700028F0D107489038C06807490840BC
:1024F00004499039C86001E0012066E4002064E4EA
:1025000000700040901002408C809D01FCFFEEFEA8
:10251000704770B504460CB9012070BD606A38B9C7
:102520006068B0F5827F00D105E00021E16102E042
:102530000021216161610021A16294F85D0028B948
:10254000002084F85C00204600F05CF8022084F84B
:102550005D002068006820F0400021680860E068A5
:10256000B0F5E06F01D9002501E04FF48055E06837
:10257000B0F5706F05D0E068B0F5E06F01D00021D4
:10258000A162A08800F48270218901F4044108430B
:10259000217C01F002010843217D01F00101084383
:1025A000218B01F400710843217F01F038010843B9
:1025B0002021095D01F080010843218D01F40051C3
:1025C0000843216808600421A06901EA104094F8DA
:1025D000241001F01001084394F8341001F00801B0
:1025E0000843A18901F47061084305F48051084350
:1025F0002168486000202066012084F85D000020EA
:102600008BE7000010B586B00446142101A8FDF741
:1026100094FE26492068884246D100BF2448006EB7
:1026200040F48050224908660846006E00F480504D
:10263000009000BF00BF00BF0846C06C40F0010022
:10264000C8640846C06C00F00100009000BF00BFE5
:10265000A02001900220029000200390032004900B
:102660000520059001A94FF09040FEF725FE114886
:10267000114908600120486010210F488160002145
:10268000C1608021016149004161890081610021AF
:10269000C1610162FEF724FC08B1FEF748FA00BFF1
:1026A00005486065846200BF06B010BD003001407F
:1026B0000010024030000240D40100102DE9F84F14
:1026C0000446884616461D464FF0000A00BF94F89F
:1026D0005C00012802D1022000F0E5B8012084F856
:1026E0005C0000BFFEF7CEFE0746B14694F85D00E1
:1026F000012802D04FF0020ACBE0B8F1000F00D061
:1027000016B94FF0010AC4E0032084F85D000020F0
:102710002066C4F83880A687E6872064A4F84400C1
:10272000A4F846002065E064A068B0F5004F0BD126
:102730002068006820F04000216808602068006878
:1027400040F48040216808602068006800F0400084
:10275000402805D02068006840F0400021680860EB
:10276000E068B0F5E06F2FD9606810B1B9F1010FE2
:1027700009D1A06B00882168C860A06B801CA06391
:10278000E08F401EE0871BE02068806800F00200B8
:1027900002280AD1A06B00882168C860A06B801C49
:1027A000A063E08F401EE0870AE0FEF76BFEC01BCF
:1027B000A84201D3681C00B915B94FF0030A68E0BC
:1027C000E08F0028E0D14AE0606810B1B9F1010F54
:1027D00017D1E08F01280AD9A06B00882168C86052
:1027E000A06B801CA063E08F801EE08709E0A06BD7
:1027F000007821680873A06B401CA063E08F401E26
:10280000E08729E02068806800F00200022818D1E3
:10281000E08F01280AD9A06B00882168C860A06BEE
:10282000801CA063E08F801EE08715E0A06B00781D
:1028300021680873A06B401CA063E08F401EE087F6
:102840000AE0FEF71FFEC01BA84201D3681C00B9B6
:1028500015B94FF0030A1CE0E08F0028D2D13A46A8
:102860002946204601F0F8FC08B120202066A06827
:1028700050B900BF002000902068C0680090206818
:102880008068009000BF00BF206E08B14FF0010AC1
:1028900000BF012084F85D0000BF002084F85C00C8
:1028A00000BF504618E718BCBDE8E08F2DE9F041A5
:1028B00004460E461546002700BF94F85C00012828
:1028C00002D10220BDE8F081012084F85C0000BF45
:1028D00094F85D00012801D0022782E006B10DB90D
:1028E00001277EE0032084F85D0000202066A663B7
:1028F000A587E58720642065E064A4F84400A4F877
:102900004600A068B0F5004F0BD12068006820F0A9
:102910004000216808602068006840F48040216819
:1029200008603348616D08633248616DC86232489F
:10293000616D48630020616D88632068406820F401
:10294000804021684860E068B0F5E06F1DD8606D98
:102950008069B0F5806F18D1E08F00F0010048B9B0
:102960002068406820F4804021684860E08F401073
:10297000E0870AE02068406840F4804021684860B1
:10298000E08F012101EB6000E087E38FD4F800C005
:102990000CF10C02A16B606DFEF728FB40B1206EBC
:1029A00040F0100020660127012084F85D0018E047
:1029B0002068006800F04000402805D020680068CA
:1029C00040F04000216808602068406840F0200026
:1029D000216848602068406840F002002168486033
:1029E00000BF00BF002084F85C0000BF384669E7E4
:1029F000CD410008DB410008A541000810B50446A0
:102A00000D480068006820F040000B490968086024
:102A10004FF4E0610848C160FFF77BFD064800689D
:102A2000006840F0400004490968086003480068F5
:102A300007F0B0FC10BD0000700100105001001044
:102A4000704770477047704730B502460B4600BF6D
:102A500092F83C00012801D1022030BD012082F80B
:102A60003C0000BF022082F83D00106841681068F9
:102A70008468154D1068A84203D121F4700158688C
:102A8000014321F0700118680143106841600E4D48
:102A90001068A84207D01068B0F1804F03D00B4DEA
:102AA0001068A84205D124F0800498680443106897
:102AB0008460012082F83D0000BF002082F83C00C5
:102AC00000BF00BFC9E70000002C014000400140EA
:102AD00010B504460CB9012010BD94F83D0028B98A
:102AE000002084F83C00204600F02AF8022084F8F8
:102AF0003D00211D206801F0BBFD012084F8480045
:102B000000BF84F83E0001213F20015540200155BF
:102B100041200155422001554320015500BF00BF0F
:102B2000012084F8440045200155462001554720E6
:102B3000015500BF012084F83D000020CCE70000D3
:102B400038B504462068B0F1804F0DD100BF14485D
:102B5000806D40F00100124988650846806D00F0E4
:102B60000100009000BF19E00E492068884215D18D
:102B700000BF0B48006E40F48030094908660846E3
:102B8000006E00F48030009000BF00BF00220A21D8
:102B90001820FEF711FD1820FEF7FAFC38BD0000E2
:102BA0000010024000400140014691F83D0001281C
:102BB00001D001207047022081F83D000868C068FC
:102BC00040F001000B68D860124B0868984207D0AB
:102BD0000868B0F1804F03D00F4B0868984210D1BD
:102BE000086880680D4B00EA0302062A0FD0B2F590
:102BF000803F0CD00868006840F001000B68186046
:102C000005E00868006840F001000B6818600020CB
:102C1000D0E70000002C0140004001400700010007
:102C20002DE9F04104460D46002700BF94F83C0012
:102C3000012802D10220BDE8F081012084F83C0087
:102C400000BF022084F83D002068866837480640AF
:102C500026F47F46206886602868502833D00CDC34
:102C6000202850D004DC00284BD0102851D149E056
:102C7000302849D040284CD139E060282DD0702828
:102C800007D0B0F5805F03D0B0F5005F41D10DE013
:102C900041E0D5E902136A68206801F034FD20683C
:102CA000866846F077062068866034E0D5E902132E
:102CB0006A68206801F027FD2068806840F4804041
:102CC0002168886027E0EA686968206801F090FE62
:102CD0005021206801F022FD1DE0EA686968206843
:102CE00001F099FE6021206801F018FD13E0EA6808
:102CF0006968206801F07CFE4021206801F00EFD2B
:102D000009E000BF00BF00BF2968206801F006FD90
:102D100001E0012700BF00BF012084F83D0000BF93
:102D2000002084F83C0000BF384684E788FFFEFF9F
:102D3000704710B5044620680069C0F34000D8B160
:102D40002068C068C0F34000B0B16FF00200216895
:102D50000861012020772068806900F0030018B125
:102D60002046FFF7E5FF05E0204600F0EBF820469F
:102D700000F0D9F90020207720680069C0F38000B6
:102D8000D8B12068C068C0F38000B0B16FF0040013
:102D900021680861022020772068806900F4407073
:102DA00018B12046FFF7C4FF05E0204600F0CAF83E
:102DB000204600F0B8F90020207720680069C0F3B1
:102DC000C000D8B12068C068C0F3C000B0B16FF0D7
:102DD000080021680861042020772068C06900F09D
:102DE000030018B12046FFF7A3FF05E0204600F0DE
:102DF000A9F8204600F097F90020207720680069A4
:102E0000C0F30010D8B12068C068C0F30010B0B1A2
:102E10006FF0100021680861082020772068C069E1
:102E200000F4407018B12046FFF782FF05E020460D
:102E300000F088F8204600F076F90020207720681E
:102E4000006900F0010058B12068C06800F001007E
:102E500030B16FF0010021680861204600F0EEF902
:102E600020680069C0F3C01058B12068C068C0F382
:102E7000C01030B16FF08000216808612046FFF774
:102E8000E1FD20680069C0F3002058B12068C068E7
:102E9000C0F3C01030B16FF4807021680861204623
:102EA000FFF7CFFD20680069C0F3801058B120689B
:102EB000C068C0F3801030B16FF040002168086135
:102EC000204600F0CFF920680069C0F3401058B1E7
:102ED0002068C068C0F3401030B16FF02000216856
:102EE00008612046FFF7AFFD10BD000010B586B0A9
:102EF0000446142101A8FDF720FA2068B0F1804FA4
:102F00001AD100BF0D48C06C40F002000B49C864E4
:102F10000846C06C00F00200009000BF00BF08151A
:102F2000019002200290002003900490012005905F
:102F300001A90348FEF7C0F906B010BD0010024019
:102F40000004004870472DE9F04104460D4616463E
:102F5000002700BF94F83C00012802D10220BDE800
:102F6000F081012084F83C0000BF0C2E51D005DC1C
:102F70004EB1042E1ED0082E7AD133E0102E60D030
:102F8000142EF9D175E02946206801F0D1FB2068A4
:102F9000806940F00800216888612068806920F01D
:102FA00004002168886120688069296908432168D4
:102FB000886178E02946206801F0FEFB206880697E
:102FC00040F40060216888612068806920F4806096
:102FD0002168886120688069296940EA01202168A8
:102FE000886160E02946206801F02EFC2068C069F5
:102FF00040F008002168C8612068C06920F0040022
:103000002168C8612068C069296908432168C861CE
:1030100049E02946206801F05FFC2068C06940F45F
:1030200000602168C8612068C06920F48060216860
:10303000C8612068C069296940EA01202168C86127
:1030400031E02946206801F077FC2068406D40F0AF
:103050000800216848652068406D20F00400216860
:1030600048652068406D29690843216848651AE071
:1030700017E02946206801F08DFC2068406D40F47F
:103080000060216848652068406D20F480602168F8
:1030900048652068406D296940EA0120216848653B
:1030A00001E0012700BF00BF00BF002084F83C0002
:1030B00000BF384653E710B504460CB9012010BDD7
:1030C00094F83D0028B9002084F83C00204600F028
:1030D00029F8022084F83D00211D206801F0C8FA7B
:1030E000012084F8480000BF84F83E0001213F2001
:1030F00001554020015541200155422001554320F2
:10310000015500BF00BF012084F84400452001554F
:10311000462001554720015500BF012084F83D009D
:103120000020CCE77047704770B504460D4615B9CE
:1031300094F83E0015E0042D02D13F20005D10E020
:10314000082D02D14020005D0BE00C2D02D1412062
:10315000005D06E0102D02D14220005D01E0432019
:10316000005D012801D0012070BD1DB9022084F846
:103170003E001AE0042D03D102213F20015514E046
:10318000082D03D10221402001550EE00C2D03D162
:1031900002214120015508E0102D03D102214220D7
:1031A000015502E0022143200155012229462068F1
:1031B00001F098FA1D492068884207D01C49206810
:1031C000884203D01B492068884201D1012000E0D9
:1031D000002028B12068406C40F400402168486419
:1031E00012492068884207D02068B0F1804F03D090
:1031F0000F492068884210D1206880680E4900EA93
:103200000106062E0FD0B6F5803F0CD0206800686E
:1032100040F001002168086005E02068006840F087
:1032200001002168086000209EE70000002C01409A
:1032300000400140004401400700010010B5044671
:1032400006492068884201D1FEF722F904488442E9
:1032500002D102200FF038FE10BD00000014004023
:10326000300D002070477047704770B50446A56F59
:10327000E66F2068806800F08000802823D1212D2F
:1032800021D100BF00BF2168083151E8001F21F0A3
:1032900080002168083141E80002002AF3D100BF14
:1032A000E06E68B1E06EFDF73DFD48B1E06EFDF700
:1032B00094FD202804D11020C4F88000032070BDA4
:1032C000204601F08EFD2068806800F04000402814
:1032D00023D1222E21D100BF00BF2168083151E83F
:1032E000001F21F040002168083141E80002002A57
:1032F000F3D100BF206F68B1206FFDF713FD48B117
:10330000206FFDF76AFD202804D11020C4F880004A
:103310000320D4E7204601F01BFD0020CFE77047D3
:103320002DE9F04704462068C569206806682068D2
:10333000876840F60F0005EA0009B9F1000F0CD1CB
:1033400005F0200048B106F0200030B1606E10B1E9
:103350002046616E8847BDE8F087B9F1000F7DD047
:1033600007F0010018B9BE4830400028F7D005F03A
:10337000010058B106F4807040B101202168086254
:10338000D4F8800040F00100C4F8800005F002008D
:1033900058B107F0010040B1022021680862D4F85A
:1033A000800040F00400C4F8800005F0040058B12B
:1033B00007F0010040B1042021680862D4F88000C1
:1033C00040F00200C4F8800005F0080070B106F07B
:1033D000200010B907F0010040B108202168086200
:1033E000D4F8800040F00800C4F8800005F40060C4
:1033F00060B106F0806048B14FF400602168086257
:10340000D4F8800040F02000C4F88000D4F8800098
:1034100000284BD005F0200038B106F0200020B184
:10342000606E10B12046616E8847D4F880A0206895
:10343000806800F04000402802D00AF0280070B3F5
:10344000204601F085FC2068806800F0400040289C
:1034500021D100BF00BF2168083100E027E051E81A
:10346000001F21F040002168083141E80002002AD5
:10347000F1D100BF206F50B17A48216F8863206F6F
:10348000FDF77DFC90B1206F816B88470EE02046F0
:10349000FFF745FF0AE02046FFF741FF06E0FFE7A0
:1034A0002046FFF73CFF0020C4F8800053E7206E61
:1034B00001286FD105F0100000286BD006F0100035
:1034C0000028FAD01020216808622068806800F087
:1034D000400040285FD1206F006840681FFA80F8E4
:1034E000B8F1000F55D0B4F85800404551DDA4F8AC
:1034F0005A80206F0068006800F02000E8BB00BF21
:1035000000BF216851E8001F21F48070226842E862
:1035100000010029F5D100BF00BF00BF21680831BC
:1035200051E8001F21F001002168083141E8000244
:10353000002AF3D100BF00BF00BF2168083151E865
:10354000001F21F040002168083141E80002002AF4
:10355000F3D100BF2020E0670020206600BF00BF3D
:10356000216851E8001F21F01000226842E80001A4
:103570000029F5D100BF206F00E001E0FDF7D2FB8C
:10358000B4F85800B4F85A20801A81B22046FFF7E8
:103590006AFEE0E63EE034F8580F6188401A1FFAF0
:1035A00080F86088583CA0B3B8F1000F31D000BF5C
:1035B00000BF216851E8001F21F49070226842E8A2
:1035C00000010029F5D100BF00BF00BF216808310C
:1035D00051E8001F21F001002168083141E8000294
:1035E000002AF3D100BF2020E0670020206660663B
:1035F00000BF00BF216851E8001F21F010002268C1
:1036000042E800010029F5D100BF41462046FFF7FE
:103610002AFEA0E605F4801050B107F4800038B10E
:103620004FF48010216808622046FFF71DFE92E6E5
:1036300005F0800040B106F0800028B1A06E10B106
:103640002046A16E884786E605F0400030B106F0BE
:10365000400018B1204601F0ADFB7CE600BF7AE6E1
:10366000200100040F4C000810B504460CB90120DD
:1036700010BDA06900B100E000BFA06F28B9002014
:1036800084F87400204600F029F82420A067206800
:10369000006820F0010021680860204601F0B2FBBC
:1036A000012800D1E4E7606A10B1204601F0FAF980
:1036B0002068406820F49040216848602068806855
:1036C00020F02A00216888602068006840F001002E
:1036D00021680860204601F061FAC9E710B59EB084
:1036E0000446142119A8FCF728FE5C2102A8FCF767
:1036F00024FE2F492068884257D1012002900A9069
:1037000002A8FDF7FDFF08B1FDF711FA00BF294837
:10371000006E40F48040274908660846006E00F4B9
:103720008040019000BF00BF00BF0846C06C40F061
:103730000100C8640846C06C00F00100019000BFA1
:1037400000BF4FF4C060199002201A9000201B9017
:1037500003201C9007201D9019A94FF09040FDF701
:10376000ABFD154815490860022048600021134848
:103770008160C16080210161002141618161C1617D
:103780004FF480510162FDF7ABFB08B1FDF7CFF9B3
:1037900000BF0A482067846200BF00220F21252055
:1037A000FDF70AFF2520FDF7F3FE1EB010BD000057
:1037B000003801400010024058000240000F002075
:1037C00070B504460D461646E06F20282CD105B191
:1037D0000EB9012070BD00BF94F87400012801D11A
:1037E0000220F7E7012084F8740000BF0020206663
:1037F0000E492068884211D02068406800F400001B
:1038000060B100BF00BF216851E8001F41F0806037
:10381000226842E800010029F5D100BF324629465E
:10382000204601F06BFCD5E70220D3E70080004082
:1038300070477047704700BFFEE7000010B500F00A
:1038400063F80448FFF7B0F90BF0C4FE0EF0C2FBBA
:1038500010BD0000300D00202DE9F04107460C4658
:1038600015461E462A2000F046F9384600F034F985
:10387000284600F031F92B2000F03DF9204600F0F9
:103880002BF9304600F028F92C2000F034F9BDE87F
:10389000F08100002DE9F04704460D4616461F460C
:1038A000DDF82080301B401C791B491C48431FFA5F
:1038B00080F93B46324629462046FFF7CDFF1148A6
:1038C0000068006820F040000E49096808604FF465
:1038D00070610C48C160FEF71CFE0A480068006871
:1038E00040F0400007490968086000BF054890F8AB
:1038F0005D000128FAD14A4641460248FEF7D6FF4C
:10390000BDE8F0877001001008B5012269467048D3
:1039100000F0C3FD002204214FF09040FDF7ACFD04
:103920003220FDF7B1FB012204214FF09040FDF75A
:10393000A3FD3220FDF7A8FB002208214FF09040A4
:10394000FDF79AFD08216348FFF7EEFB4FF6FF7184
:103950000098884202D140F2E73000905D4900981B
:103960000968C8633220FDF78FFB112000F0C3F80F
:103970007820FDF789FB362000F0BDF8002000F02C
:10398000B4F83A2000F0B7F8052000F0AEF8B22005
:1039900000F0B1F80C2000F0A8F80C2000F0A5F819
:1039A000002000F0A2F8332000F09FF8332000F050
:1039B0009CF8B72000F09FF8352000F096F8BB2067
:1039C00000F099F8322000F090F8C22000F093F84F
:1039D000012000F08AF8C32000F08DF8152000F0D7
:1039E00084F8C42000F087F8202000F07EF8C6207C
:1039F00000F081F80F2000F078F8D02000F07BF87C
:103A0000A42000F072F8A12000F06FF8E02000F090
:103A100072F8D02000F069F8082000F066F80E2057
:103A200000F063F8092000F060F8092000F05DF86C
:103A3000052000F05AF8312000F057F8332000F04C
:103A400054F8482000F051F8172000F04EF81420E8
:103A500000F04BF8152000F048F8312000F045F850
:103A6000342000F042F8E12000F045F8D02000F0CA
:103A70003CF8082000F039F80E2000F036F8092054
:103A800000F033F8092000F030F8152000F02DF890
:103A9000312000F02AF8332000F027F8482000F009
:103AA00024F8172000F021F8142000F01EF815204B
:103AB00000F01BF8312000F018F8342000F015F861
:103AC000212000F018F8292000F015F808BD0000AA
:103AD00000F80308E40C002010B50446201200F0A2
:103AE0001DF8E0B200F01AF810BD10B504462046EB
:103AF00000F014F810BD10B50446002210214FF05C
:103B00009040FDF7B9FC204600F008F80122102192
:103B10004FF09040FDF7B0FC10BD000001B5FF2351
:103B2000012269460148FEF7C9FD08BD7001001079
:103B300004E00FF0ABF8022010F05EFEF9E70000A1
:103B400008B500BF0E48806C40F001000C49886445
:103B50000846806C00F00100009000BF00BF00220A
:103B60000E210D20FDF728FD0D20FDF711FD00228F
:103B70000D210F20FDF720FD0F20FDF709FD08BDE9
:103B80000010024000B587B0142102A8FCF7D5FB55
:103B900000BF1E48C06C40F080001C49C864084645
:103BA000C06C00F08000019000BF00BF00BF08465D
:103BB000C06C40F00100C8640846C06C00F0010011
:103BC000019000BF00BF00BF0846C06C40F002007B
:103BD000C8640846C06C00F00200019000BF00BF3E
:103BE00001221C214FF09040FDF746FC1C20029062
:103BF00001200390002004900220059002A94FF0BC
:103C00009040FDF759FB07B000BD000000100240D6
:103C100010B51148114908604FF4827048600021C6
:103C20000E4881604FF4E061C16002210161012111
:103C30004161490281610021C16101624162816289
:103C40000721C162002101634163FEF762FC08B1F4
:103C5000FCF76DFF10BD0000003001407001001046
:103C600000B587B000200390049005900690009066
:103C7000019002901548164908604F2048600021C5
:103C80001348816040F2E731C16000210161416168
:103C900080218161FEF71CFF08B1FCF748FF4FF45B
:103CA0008050039003A90A48FEF7BAFF08B1FCF759
:103CB0003EFF00200090029069460548FEF7C4FED2
:103CC00008B1FCF734FF07B000BD00000040014020
:103CD000300D002000B58FB000200B900C900D909F
:103CE0000E90089009900A901C2101A8FCF725FB72
:103CF0004FF08040204908604F20486000211E4856
:103D0000816040F2E731C160002101618161FEF70D
:103D1000DFFE08B1FCF70BFF4FF480500B900BA9AE
:103D20001548FEF77DFF08B1FCF701FF1248FFF7C9
:103D3000C2F908B1FCF7FBFE002008900A9008A920
:103D40000D48FEF781FE08B1FCF7F1FE60200190FE
:103D500040F2E7300290002003900590082201A96C
:103D60000548FFF7F0F808B1FCF7E1FE0248FFF75D
:103D7000BDF80FB000BD0000E40C002010B50D48E8
:103D80000D4908604FF4E130486000210A48816025
:103D9000C16001610C21416100218161C161016249
:103DA0000020054948620846FFF75EFC08B1FCF7B1
:103DB000BEFE10BD003801407C0E002000BFFEE7B3
:103DC00038B505466868401D00900321684600F03C
:103DD0008DF82649A1F842000321684600F086F8D4
:103DE000224981F84400002408E00321684600F0DD
:103DF0007DF8C1B21D4845300155641C1B4890F840
:103E00004000A042F1DC0321684600F06FF817493A
:103E1000A1F886000621684600F068F81449088079
:103E20000621684600F062F8114948800098801D1C
:103E300000900321684600F059F80E4981F84200CD
:103E40000421684600F052F80A49A1F8440000989D
:103E5000093000900321684600F048F80549A1F8B0
:103E6000460001200449087038BD000068030010B6
:103E700028000020F00300102C00002038B5044674
:103E80006068401D0090402213480099FCF73CFAFE
:103E90000098403000900321684600F027F80E4952
:103EA00081F8400040220D480099FCF72DFA009857
:103EB000403000900621684600F018F80749A1F844
:103EC00040000549064800680CF0CAFA0349054855
:103ED00000680CF0C5FA38BD68030010F00300104C
:103EE000400000206000002000BFFEE77FB50446D0
:103EF0000D4600200090019002900390266800BFBC
:103F000004E016F8011B0DF80010401CA842F8DB75
:103F10002068284420606846FCF72AFA04B070BD87
:103F20002DE9F0411448006808B9BDE8F08100248B
:103F30001DE011484668114850F83470002500BF54
:103F400007E016F8011B17F8012B914200D002E0A0
:103F50006D1C052DF5DB00BF052D06D1074800EBD4
:103F6000C40041680448884703E0601C84B2042C04
:103F7000DFDB00BF00BFD8E718000020944E010827
:103F80002DE9F04104460F4600255B48C06800F06B
:103F9000030090B15848C06800F0030021688842CF
:103FA00009D1206838B15448C068C0F30210401CE1
:103FB0006168884233D0012531E02068012804D0AF
:103FC000022809D003281AD10DE04B48006800F000
:103FD000020000B9012514E04748006800F4806041
:103FE00000B901250DE04448006800F4003028B90C
:103FF0004148006800F4802000B9012501E0012556
:1040000000BF00BF5DB9D4E90010401E41EA0010B6
:104010003949C96821F0730108433749C860002D48
:1040200067D13548006820F0806033490860FDF7AB
:1040300029FA064606E0FDF725FA801B022801D979
:10404000032505E02C48006800F000600028F2D14C
:1040500000BFC5BB67B9A0680002217B40EAC16010
:1040600025490969254A114008432349086120E090
:10407000012F0FD1A0680002218A0122C2EB510159
:1040800040EA41501C4909691D4A114008431A4938
:1040900008610EE0A0680002217D0122C2EB5101FF
:1040A00040EA416014490969164A1140084312491F
:1040B00008611148006840F080600F490860FDF712
:1040C000E1F9064607E014E0FDF7DCF9801B022861
:1040D00001D9032505E00848006800F000600028C9
:1040E000F2D000BF2DB904480069A1690843024914
:1040F00008612846BDE8F08100100240FF80FF07FC
:10410000FF809FFFFF80FFF9F8B504460026234893
:10411000806D00F0805018B1FDF7EAFA054616E010
:1041200000BF1E48806D40F080501C4988650846DD
:10413000806D00F08050009000BF00BFFDF7D8FAFE
:1041400005461648806D20F0805014498865B5F505
:10415000007F07D1802C10D9A02C01D902260CE0B9
:1041600001260AE0802C01D9032606E0802C01D12B
:10417000022602E0702C00D101260948006820F0D8
:1041800007003043064908600846006800F0070051
:10419000B04201D00120F8BD0020FCE70010024031
:1041A0000020024070B50546AC6A2068406820F0E7
:1041B000030021684860206E40F010002066012056
:1041C00084F85D002046FEF7A3F970BD70B5044683
:1041D000A56A2846FEF734FC70BDF8B50546AC6A02
:1041E000FDF750F906462868006800F020002028F6
:1041F0002DD02068406820F02000216848602068A9
:10420000406820F002002168486032466421204660
:1042100000F022F818B1206E40F020002066A0685F
:1042200050B900BF002000902068C068009020684E
:104230008068009000BF00BF0020E087012084F864
:104240005D00206E18B12046FEF762F9F8BD2046E9
:10425000FEF7D4FB00BFF9E7F8B504460E46154655
:10426000334600224FF4C0512046009500F026F856
:1042700028B1206E40F0200020660320F8BD3346B0
:10428000002280212046009500F098F828B1206E89
:1042900040F0200020660320F0E7334600224FF470
:1042A000C0612046009500F009F828B1206E40F06A
:1042B000200020660320E1E70020DFE72DE9FC5F16
:1042C00004460D4616461F46DDF83090002000904B
:1042D000FDF7D8F8A0EB0900A7EB0008FDF7D2F82E
:1042E0008246206800F10C0B31480068C0EBC0002A
:1042F00000EB8000000D00FB08F0019050E0B5F5E8
:10430000C06F05D126B99BF8000000909DF8000011
:10431000781C002844D0FDF7B5F8A0EB0A00404512
:1043200002D2B8F1000F34D12068406820F0E000DC
:10433000216848606068B0F5827F0DD1A068B0F553
:10434000004F03D0A068B0F5806F05D120680068E9
:1043500020F0400021680860A06AB0F5005F0DD130
:1043600000BF2068006820F40050216808602068C1
:10437000006840F400502168086000BF012084F804
:104380005D0000BF002084F85C0000BF032000F047
:1043900011B8019808B94FF000080198401E01902B
:1043A000206880682840B042A9D10020EFE70000D3
:1043B000000000203CBCBDE8C09F00002DE9F84F84
:1043C00004460D4690461E46DDF82890FDF75AF843
:1043D000A0EB0900371AFDF755F882462C48006813
:1043E000C0F3CB307843009045E0701C002842D0E9
:1043F000FDF748F8A0EB0A00B84200D2A7BB20683E
:10440000406820F0E000216848606068B0F5827F75
:104410000DD1A068B0F5004F03D0A068B0F5806F53
:1044200005D12068006820F0400021680860A06A7B
:10443000B0F5005F0DD100BF2068006820F4005087
:10444000216808602068006840F400502168086016
:1044500000BF012084F85D0000BF002084F85C00EC
:1044600000BF032000F016B8FFE7009800B900274E
:104470000098401E0090206880682840A84201D122
:10448000012000E000204045AFD10020EAE7000015
:104490000000002018BCBDE8E08F30B503460C4694
:1044A0001546002206E0184600F007F844F82200FE
:1044B0001B1D521CAA42F6D330BD01460868704746
:1044C0002DE9F04F87B081460E4615460020069034
:1044D000B9F1006F02D207B000F052B806B9FAE79E
:1044E00005B9F8E7A9F100604FEAD02A012000EBF6
:1044F000552B002002904846FCF7FCFB0390CDF8BA
:1045000010A0CDF814B0FCF7BFFE06A902A8FCF776
:10451000CFFD0190FCF74EFEFCF7B6FE002426E02E
:1045200005F0010058B1B4EB550F08D1600056F802
:104530002000002140EA01074FF0FF380BE0600047
:10454000401C56F820000021620056F8222041EA63
:10455000020740EA010809EBC4013A46434600203D
:10456000FCF732FE0190019800B104E0641C681C65
:10457000B4EB500FD4D300BFFCF71CFE00BFAAE77A
:1045800030BCBDE8C08F00001CB504466068401D0B
:10459000009003216846FFF7A9FC019004490198A7
:1045A0000968C863012201A90248FFF789FF1CBD01
:1045B000E40C002000F8030810B510F035FB0128CA
:1045C00001D010F081FA10BD00B597B0442106A8C3
:1045D000FBF7B3FE142101A8FBF7AFFE4FF4007008
:1045E000FDF740F808B1FCF7A2FA0120069000049C
:1045F00007900220109003211191012112911421A2
:1046000013910721149102211591169106A8FDF727
:10461000D7FB08B1FCF78BFA0F2001900320029022
:104620000020039004900590042101A8FDF72CFAC6
:1046300008B1FCF77CFA17B000BD00000348006821
:1046400040F47000014908607047000088ED00E008
:1046500010B50248FEF76DFB10BD0000300D0020C4
:1046600010B50248FEF765FB10BD00001C020010EB
:1046700010B50268184B984202D0B0F1804F03D1B8
:1046800022F070024B681A43134B984208D0B0F1E5
:10469000804F05D0114B984202D0114B984203D164
:1046A00022F44072CB681A4322F080034C6943EA3B
:1046B000040202608B68C3620B688362064B9842F7
:1046C00005D0064B984202D0054B984201D10B69A8
:1046D00003630123436110BD002C014000400140F1
:1046E0000044014030B501F01F05012404FA05F330
:1046F000046A9C430462046A01F01F0502FA05F58E
:104700002C43046230BD30B50C46816821F47F41F2
:1047100042EA032525432943816030BD0A4681686A
:1047200021F0700142F007031943816070470000D7
:1047300030B5056A25F001050562026A436884699F
:10474000194D2C4024F003040D682C4322F0020282
:104750008D682A43154DA84200D107E0144DA842A8
:1047600000D103E0134DA84206D100BF22F0080299
:10477000CD682A4322F004020C4DA84205D00C4D0E
:10478000A84202D00B4DA84207D123F4807323F432
:1047900000734D692B438D692B43436084614D68E1
:1047A0004563026230BD00008FFFFEFF002C014018
:1047B000004001400044014030B5056A25F0100575
:1047C0000562026A436884691B4D2C4024F44074DE
:1047D0000D6844EA052422F020028D6842EA0512A1
:1047E000164DA84200D107E0154DA84200D100BFE8
:1047F000144DA84207D106E022F08002CD6842EABB
:10480000051222F040020D4DA84205D00C4DA842E1
:1048100002D00C4DA84209D123F4806323F4006335
:104820004D6943EA85038D6943EA850343608461EA
:104830004D688563026230BDFF8FFFFE002C014092
:10484000004001400044014030B5056A25F4807500
:104850000562026A4368C4691B4D2C4024F00304BE
:104860000D682C4322F400728D6842EA0522174D30
:10487000A84200D107E0164DA84200D100BF154D57
:10488000A84207D106E022F40062CD6842EA052280
:1048900022F480620D4DA84205D00D4DA84202D0F1
:1048A0000C4DA84209D123F4805323F400534D69E1
:1048B00043EA05138D6943EA05134360C4614D68FB
:1048C000C563026230BD00008FFFFEFF002C014077
:1048D000004001400044014030B5056A25F4805590
:1048E0000562036A4468C2690F4D2A4022F440728F
:1048F0000D6842EA052223F400538D6843EA05332C
:104900000A4DA84205D00A4DA84202D0094DA8423E
:1049100004D124F480444D6944EA85144460C261A2
:104920004D680564036230BDFF8FFFFE002C01401F
:10493000004001400044014030B5056A25F480354F
:104940000562026A4368446D0E4D2C400D682C438D
:1049500022F400320D8942EA05420B4DA84205D0EF
:104960000A4DA84202D00A4DA84204D123F4803354
:104970004D6943EA0523436044654D6885650262DD
:1049800030BD00008FFFFEFF002C014000400140C1
:104990000044014030B5056A25F480150562026ABD
:1049A0004468436D0E4D2B400D6843EA052322F405
:1049B00000120D8942EA05520A4DA84205D00A4D5F
:1049C000A84202D0094DA84204D124F480244D69A4
:1049D00044EA8524446043654D68C565026230BD84
:1049E000FF8FFFFE002C01400040014000440140C9
:1049F00030B50B461446026A056A25F001050562CA
:104A0000816921F0F00141EA041122F00A021A43FF
:104A10008161026230BD30B50B461446056A25F04F
:104A2000100505628169026A21F4704141EA04318E
:104A300022F0A00242EA03128161026230BD00004E
:104A400038B504466068401D009002216846FFF7B3
:104A50004DFA1349087002216846FFF747FA1049DA
:104A6000487002216846FFF741FA0D49887001211C
:104A70006846FFF73BFA0A49C87002216846FFF70B
:104A800035FA0749087102216846FFF72FFA0449F1
:104A9000487102216846FFF729FA0149887138BD3B
:104AA0002000002090F8241001F0010139B10168C4
:104AB000496821F40031826A11430268516090F81C
:104AC000241001F00201022907D10168496821F48C
:104AD0008031C26A11430268516090F8241001F0DD
:104AE0000401042907D10168496821F48021026B7F
:104AF00011430268516090F8241001F00801082960
:104B000007D10168496821F40041426B11430268F2
:104B1000516090F8241001F01001102907D10168AC
:104B2000896821F48051826B11430268916090F88A
:104B3000241001F02001202907D10168896821F49F
:104B40000051C26B11430268916090F8241001F08B
:104B50004001402913D10168496821F48011026C99
:104B6000114302685160016CB1F5801F07D10168E3
:104B7000496821F4C001426C11430268516090F809
:104B8000241001F08001802907D10168496821F4CF
:104B90000021826C114302685160704738B50446A9
:104BA0000020C4F88000FCF76DFC05462068006812
:104BB00000F0080008280CD16FF07E402B46002240
:104BC0004FF400110090204600F002FB08B10320D2
:104BD00038BD2068006800F0040004280CD16FF094
:104BE0007E402B4600224FF480010090204600F0CA
:104BF000EFFA08B10320EBE72020A067E067002070
:104C0000206600BF84F8740000BF00BFE0E770B505
:104C10000546AC6A0020A4F85A00A4F852002046C9
:104C2000FEF77DFB70BD2DE9F0410546AC6AA66F2D
:104C3000E76F2068806800F08000802807D1212E6F
:104C400005D10020A4F85200204600F0CAF82068E0
:104C5000806800F04000402807D1222F05D10020B5
:104C6000A4F85A00204600F073F8D4F8800040F011
:104C70001000C4F880002046FEF751FBBDE8F0812B
:104C800070B50546AC6A2868006800F02000E8BBF3
:104C90000020A4F85A0000BF00BF216851E8001F9F
:104CA00021F48070226842E800010029F5D100BF9C
:104CB00000BF00BF2168083151E8001F21F001004A
:104CC0002168083141E80002002AF3D100BF00BF8B
:104CD00000BF2168083151E8001F21F04000216821
:104CE000083141E80002002AF3D100BF2020E0672C
:104CF000206E01280ED100BF00BF216851E8001FBF
:104D000021F01000226842E8000100E002E00029E2
:104D1000F3D100BF206E012805D1B4F85810204609
:104D2000FEF7A1FA02E02046FEF782FD70BD70B5E5
:104D30000546AC6A206E012806D1B4F85800410837
:104D40002046FEF790FA02E02046FEF772FD70BDA5
:104D500000BF00BF026852E8002F22F49071036880
:104D600043E80012002AF5D100BF00BF00BF02686F
:104D7000083252E8002F22F001010268083242E8AE
:104D80000013002BF3D100BF016E01290CD100BF2D
:104D900000BF026852E8002F22F01001036843E8C8
:104DA0000012002AF5D100BF2021C1670021016651
:104DB0004166704710B5044600BF00BF216851E846
:104DC000001F21F04000226842E800010029F5D1CF
:104DD00000BF2020A0670020A0662046FEF72AFD25
:104DE00010BD00BF00BF026852E8002F22F0C001D2
:104DF000036843E80012002AF5D100BF2021816733
:104E0000704700002DE9F84F044600200090B24999
:104E10002068884200D100E000BF2169A0680843F3
:104E200061690843E16940EA010A20680068AB490A
:104E3000084040EA0A00216808602068406820F4C1
:104E40004050E168084321684860D4F818A0A2499E
:104E50002068884202D0206A40EA0A0A20688068F6
:104E600020F4306040EA0A002168886000BF9C4955
:104E70002068884216D19B48006800F0030030B1DA
:104E8000012808D0022804D0032808D105E0012514
:104E900007E0022505E0042503E0082501E01025D0
:104EA00000BF54E090492068884216D18D480068C0
:104EB00000F00C0030B1042808D0082804D00C28D9
:104EC00008D105E0002507E0022505E0042503E000
:104ED000082501E0102500BF39E084492068884298
:104EE00016D18048006800F0300030B1102808D09A
:104EF000202804D0302808D105E0002507E002254D
:104F000005E0042503E0082501E0102500BF1EE0B0
:104F100071492068884219D17248006800F44060E5
:104F200048B1B0F5806F0AD0B0F5006F05D0B0F58C
:104F3000406F08D105E0002507E0022505E00425C3
:104F400003E0082501E0102500BF00E0102500BFA8
:104F500061492068884245D135B1022D08D0042D21
:104F600008D0082D0DD109E0FCF790FE06460CE0B4
:104F70005F4E0AE0FCF7AEFE064606E04FF4004640
:104F800003E000260120009000BF00BF002E0AD0E1
:104F9000606800EB4000B04203D860680003B04294
:104FA00002D20120009090E04FF48070A6FB003008
:104FB000D4F804C04FEA5C015F1840F1000162467A
:104FC00000233846FBF76CF98146B9F5407F06D3DC
:104FD000B9F5801F03D22068C0F80C9075E001205D
:104FE000009072E0E069B0F5004F3AD1092D17D278
:104FF000DFE805F005090D160F1616161300FCF76D
:1050000045FE064610E0FCF753FE06460CE0384E1F
:105010000AE0FCF75FFE064606E04FF4004603E0B8
:1050200000260120009000BF00BF8EB370006168B1
:1050300000EB5100B0FBF1F9B9F1100F0ED3B9F547
:10504000803F0BD24FF6F07009EA000BC9F3420023
:105050004BEA000B2068C0F80CB036E0012000904D
:1050600033E0092D18D2DFE805F005090D170F17F9
:1050700017171400FCF70AFE064611E0FCF718FEAD
:1050800006460DE01A4E0BE0FCF724FE064607E04C
:105090001BE04FF4004603E000260120009000BF13
:1050A00000BF96B1606806EB50006168B0FBF1F993
:1050B000B9F1100F07D3B9F5803F04D21FFA89F078
:1050C0002168C86001E00120009000206066A066B1
:1050D000009800F00FB8000000800040F369FFEF77
:1050E0000038014088100240004400400048004061
:1050F0000024F40018BCBDE8E08F000070B5044641
:105100000E4615466665A4F858500020C4F8800085
:105110002220E067206F00B32A48216FC8622A4826
:10512000216F08632948216F48630020216F88633D
:10513000236803F124012B46626D206FFBF756FFB5
:1051400058B11020C4F8800000BF002084F874001B
:1051500000BF2020E067012070BD00BF002084F860
:10516000740000BF206960B100BF00BF216851E832
:10517000001F41F48070226842E800010029F5D147
:1051800000BF00BF00BF2168083151E8001F41F097
:1051900001002168083141E80002002AF3D100BF74
:1051A00000BF00BF2168083151E8001F41F04000F6
:1051B0002168083141E80002002AF3D100BF002035
:1051C000CAE70000814C00082F4D0008274C00085A
:1051D0002DE9F04104460D4617469846069E67E0C5
:1051E000701C002864D0FCF74DF9A0EB0800B04219
:1051F00000D836BB00BF00BF216851E8001F21F472
:10520000D070226842E800010029F5D100BF00BF3C
:1052100000BF2168083151E8001F21F0010021681A
:10522000083141E80002002AF3D100BF2020A06726
:10523000E06700BF002084F8740000BF0320BDE8D1
:10524000F0812068006800F0040080B32068C06925
:10525000C0F3C02058B34FF400602168086200BF5B
:1052600000BF216851E8001F21F4D070226842E895
:1052700000010029F5D100BF00BF00BF216808313F
:1052800051E8001F21F001002168083141E80002C7
:10529000002AF3D100BF2020A067E067C4F8800097
:1052A00000BF002084F8740000BF0320C7E7FFE7B9
:1052B0002068C0692840A84201D1012000E00020F8
:1052C000B8428DD00020BAE72DED028B9AB000F0E5
:1052D000E3F995E14FF0FF3101200FF0B3F9C94830
:1052E000B0F8420000EE100AB8EE400ADFEDC60A40
:1052F00080EE201A11EE104A2046FBF746F841ECEA
:10530000180B53EC182BC1A117A800F027FEBD48BD
:1053100090F84420BFA114A800F020FEB948B0F8CE
:105320008620BEA111A800F019FEBD48B0F84400C7
:1053300000EE100AB8EE400ADFEDBA0A80EE201A3D
:1053400011EE104A2046FBF720F841EC180B53EC05
:10535000182BB5A10EA800F001FEB14890F842202C
:10536000ACA10BA800F0FAFDAD48B0F84620ABA107
:1053700008A800F0F3FDAE48408864214843AC49DA
:10538000098890FBF1F6AA4845880488E01704EBE9
:1053900090508312E81705EB90508212A5A103A844
:1053A000009600F0DBFD9748B0F8420002B2002101
:1053B000A448006809F0E2FB17A9A34800680BF0B5
:1053C0004FF8904890F84420A0480168A048006831
:1053D00004F07EFC14A99F4800680BF041F889484E
:1053E000B0F88600322817DA9B48006802909B4884
:1053F000BDF8081041809848001D0068019097484A
:10540000BDF80410818094480830006800909448EA
:10541000BDF80010018436E07A48B0F886004B28C9
:1054200018DA8D480C30006802908C48BDF80810DE
:10543000418089481030006801908848BDF8041008
:10544000818085481430006800908548BDF80010C0
:10545000018418E080481830006802907F48BDF849
:10546000081041807C481C30006801907B48BDF8E2
:105470000410818078482030006800907848BDF89A
:105480000010018400BF764A0021764800680AF0C7
:10549000DEFF724A01217448006803F010FA59488F
:1054A000B0F8860001B201226F48006803F022FACA
:1054B00011A96C4800680AF0D3FF5948B0F84400BD
:1054C0000A2190FBF1F004B22246002167480068EF
:1054D00009F054FB0EA9664800680AF0C1FF504865
:1054E00090F84220634801686348006804F0F0FBCC
:1054F0000BA9624800680AF0B3FF4948B0F84600BB
:10550000322818DA54482430006802905C48BDF80C
:105510000810418050482830006801905848BDF874
:10552000041081804C482C30006800905548BDF82C
:105530000010018436E03A48B0F846004B2818DAEB
:1055400045483030006802904D48BDF80810418051
:1055500041483430006801904948BDF8041081800A
:105560003D483830006800904648BDF8001001847E
:1055700018E039483C30006802904148BDF80810F6
:10558000418035484030006801903D48BDF8041026
:10559000818031484430006800903A48BDF80010DE
:1055A000018400BF374A0021374800680AF04FFFE6
:1055B000334A01213548006803F081F91848B0F8F2
:1055C000460001B201223148006803F093F908A9AE
:1055D0002D4800680AF044FF15484088642148437C
:1055E0001349098890FBF1F004B2012221462848B2
:1055F000006803F07FF903A9264800680AF030FF2D
:1056000068E60000680300100000C842252E3266DC
:1056100047487A0025642525000000002564000025
:10562000F003001000007A44252E336647487A00C4
:1056300028000020256447422F256447422825641E
:1056400025252900440000204800002050000020AB
:105650004C00002054000020084F010828110020B1
:10566000FC0F00205C000020580000206400002097
:1056700068000020700000206C00002074000020F2
:1056800064110020381000207C00002078000020E9
:10569000800000208400002030B595B000BF04F0E9
:1056A00091FE044604F0BDFEFD490860FD49FE4838
:1056B0000CF072FF00201490FB48BDF850104180A0
:1056C00000201390F848BDF84C1081800146F44842
:1056D00000680CF018FC0021F14800680AF01CF882
:1056E000F24908600321F14800680AF01DFEF0212C
:1056F000EE4800680CF012FC0121EC4800680AF04A
:1057000099FD02200023024619460090E7480068F0
:105710000BF044FC0521E54800680AF0A1FDE4A176
:10572000E24800680AF09CFEDE49E3480CF034FFD2
:10573000E24800681290E048BDF848100184024633
:105740000021DA4800680AF082FEDD49DD480CF0ED
:1057500023FFDA48001D00681190DA48BDF84410B4
:105760004180D648083000681090D648BDF84010F7
:105770008180042141830221C183D0480C3000681C
:105780000F90D048BDF83C1041810221C186002015
:105790000E90CC48BDF838100184C848103000681D
:1057A0000D90C848BDF8341081860021BC480068BF
:1057B00008F06CFEC449086050221146C2480068D7
:1057C0000CF052FBC048BF4D0468294620460CF03F
:1057D0009AFB00BF4FF4FA720021BB48006809F041
:1057E000A4F9B648143000680C90B848BDF83010E1
:1057F000018002460121B448006809F060F90022E6
:105800001146B148006809F0B9F94FF4C871AE48C3
:10581000006809F04CF906230B22F021AA48006821
:1058200009F08DF919200023012219460090A6489D
:1058300000680BF0B3FB9D4801689948006809F0C7
:105840006BFFA34908605021A14800680CF066FB7B
:1058500000200346024600909B4801689C4800686F
:105860000BF09CFB5A219A4800680CF071FB99A13F
:10587000974800680AF0F4FD984999480CF08CFEAE
:105880008E48183000680B909548BDF82C10418068
:1058900001464988818089481C3000680A909048F8
:1058A000BDF82810418101218181FF21C1730021B0
:1058B000C18082482030006809908948BDF82410D2
:1058C00081867E482430006808908548BDF8201005
:1058D000018400217248006803F0FEF881490860E5
:1058E0003C2250217F4800680CF0BEFA1920142396
:1058F0000222002100907B4800680BF04FFB102132
:105900007848006804F0FEFA02217648006804F046
:10591000DEFA7448724D0468294620460CF0F3FA0A
:1059200000BF0A216F48006804F02CFA04221146D7
:105930006C48006804F0A8F96422002169480068F6
:1059400004F0ABFA022204216648006804F020FB50
:105950000023022264A16348006804F026FB0222AF
:1059600004216048006804F0F3FA0023022263A1D6
:105970005C48006804F0FBFA04215A48006804F00F
:105980009BF900215748006804F0CDFA4B482830B5
:105990000068079053480799006803F053F85B4983
:1059A00008600022084601684E48006804F079F853
:1059B0004C48006804F062F94548016838480068BE
:1059C00009F0AAFE52490860002003460D2200900B
:1059D000444801684E4800680BF0E0FA5A214C48F0
:1059E00000680CF0B5FA4BA1494800680AF038FD90
:1059F0002C494A480CF0D0FD30482C300068069005
:105A00004648BDF8181041802C4830300068059099
:105A10004248BDF81410818047F61841C1802149E1
:105A20003F480CF0B9FD25483430006804903C48EC
:105A3000BDF8101041802148383000680390384884
:105A4000BDF80C10818047F61841C18002214183C6
:105A5000C1828183018300211148006802F0E2FCC9
:105A6000304908603C220C212E4800680CF0FCF9FB
:105A700019206FF013030322009009480168294898
:105A800000680BF08BFA4FF4FA712648006802F0B8
:105A90000CFF224A00212348006802F010FF43E077
:105AA0003C000020CC120020840F00204000002089
:105AB0004350554E616D6500C00F0020C84E01086F
:105AC00044130020741000204400002088000020AF
:105AD0004800002030303047487A0000081300208A
